:100000000C948C050C94D3050C94D3050C94D30557
:100010000C94D3050C94D3050C94D3050C94D30500
:100020000C94D3050C94D3050C942E200C94012130
:100030000C943B170C94D3050C94D3050C94D30566
:100040000C94D3050C94D3050C94D3050C94D305D0
:100050000C94D3050C949C170C94D3050C94D305E5
:100060000C94D3050C94D3050C94D3050C94D305B0
:100070000C94D3050C94D3050C94D3050C94D305A0
:100080000C94D3050C94D3050C94D3050C94D30590
:100090000C94D3050C94D3050C94D3050C94D30580
:1000A0000C94D3050C94D3050C94D305490023007C
:1000B0002A00170030000A002800050050007600D2
:1000C000290024004C001C0031000B0052001100DC
:1000D0005100E0001E0025002B001800E0000D007C
:1000E000E10010004F0000001F00260014000C006B
:1000F00004000E001D003600E30000002000270071
:100100001A00120016000F001B003700E20000006A
:1001100021002D00080013000700330006003800FE
:100120002C00000022002E0015002F0009003400D2
:100130001900E100E2000000007001000100010070
:1001400001000100010001000100010001000100A7
:100150000100010001000100010001000100010097
:100160000100010001000100010001000100010087
:100170000100000001000100010001000100010078
:100180000100010001000000010001000100010068
:100190000100010001000100010000000100010058
:1001A0000100010001000100010001000100000048
:1001B0000100010001000100010001000100010037
:1001C0000100000001000100010001000100010028
:1001D0000100010001000100010001000100010017
:1001E0000100010001000100010001000100010007
:1001F00001000100010001000100010001000000F8
:1002000001000100010001000100010001000100E6
:1002100001000000010001000100010001000100D7
:1002200001000100010000000100010001000100C7
:1002300001000100010001000100000001000100B7
:1002400001000100010001000100010001000000A7
:100250000100010001000100010001000100010096
:100260000100010001000100010001000100010086
:100270000100010001000100010001000100010076
:100280000100010001000100010000000100010067
:100290000100010001000100010001000100000057
:1002A0000100010001000100010001000100010046
:1002B0000100000001000100010001000100010037
:1002C0000100010001000000010001000100010027
:1002D0000100010001000100010000000100010017
:1002E0000100010001000100010001000100010006
:1002F00001000100010001000100010001000100F6
:1003000001000100010001000100010001000100E5
:1003100001000100010000000100010001000100D6
:1003200001000100010001000100000001000100C6
:1003300001000100010001000100010001000000B6
:1003400001000100010001000100010001000100A5
:100350000100000001000100010001000100010096
:100360000100010001000000010001000100010086
:100370000100010001000100010001000100010075
:100380000100010001000100010001000100010065
:100390000100010001000100010001000100010055
:1003A0000100000001000100010001000100010046
:1003B0000100010001000000010001000100010036
:1003C0000100010001000100010000000100010026
:1003D0000100010001000100010001000100000016
:1003E0000100010001000100010001000100010005
:1003F00001000000010001000100010001000100F6
:1004000001000100010001000100010001000100E4
:1004100001000100010001000100010001000100D4
:1004200001000100010001000100010001000000C5
:1004300001000100010001000100010001000100B4
:1004400001000000010001000100010001000100A5
:100450000100010001000000010001000100010095
:100460000100010001000100010000000100010085
:100470000100010001000100010001000100000075
:100480000100010001000100010001000100010064
:100490000100010001000100010001000100010054
:1004A0000100010001000100010001000100010044
:1004B0000100010001000100010000000100010035
:1004C0000100010001000100010001000100000025
:1004D0000100010001000100010001000100010014
:1004E0000100000001000100010001000100010005
:1004F00001000100010000000100010001000100F5
:1005000001000100010001000100000001000100E4
:1005100001000100010001000100010001000100D3
:1005200001000100010001000100010001000100C3
:1005300001000100010001000100010001000100B3
:1005400001000100010000000100010001000100A4
:100550000100010001000100010000000100010094
:100560000100010001000100010001000100000084
:100570000100010001000100010001000100010073
:100580000100000001000100010001000100010064
:100590000100010001000000010001000100010054
:1005A0000100010001000100010001000100010043
:1005B0000100010001000100010001000100010033
:1005C0000100010001000100010001000100010023
:1005D0000100000001000100010001000100010014
:1005E0000100010001000000010001000100010004
:1005F00001000100010001000100000001000100F4
:1006000001000100010001000100010001000000E3
:1006100001000100010001000100010001000100D2
:1006200001000000010001000100010001000100C3
:1006300001000100010001000100010001000100B2
:1006400001000100010001000100010001000100A2
:100650000100010001000100010001000100000093
:100660000100010001000100010001000100010082
:100670000100000001000100010001000100010073
:100680000100010001000000010001000100010063
:100690000100010001000100010000000100010053
:1006A0000100010001000100010001000100000043
:1006B0000100010001000100010001000100010032
:1006C0000100010001000100010001000100010022
:1006D0000100010001000100010001000100010012
:1006E0000100010001000100010000000100010003
:1006F00001000100010001000100010001000000F3
:1007000001000100010001000100010001000100E1
:1007100001000000010001000100010001000100D2
:1007200001000100010000000100010001000100C2
:1007300001000100010001000100000001000100B2
:1007400001000100010001000100010001000100A1
:100750000100010001000100010001000100010091
:100760000100010001000100010001000100010081
:100770000100010001000000010001000100010072
:100780000100010001000100010000000100010062
:100790000100010001000100010001000100000052
:1007A0000100010001000100010001000100010041
:1007B0000100000001000100010001000100010032
:1007C0000100010001000000010001000100010022
:1007D0000100010001000100010001000100010011
:1007E0000100010001000100010001000100010001
:1007F00001000100010001000100010001000100F1
:1008000001000000010001000100010001000100E1
:1008100001000100010000000100010001000100D1
:1008200001000100010001000100000001000100C1
:1008300001000100010001000100010001000000B1
:1008400001000100010001000100010001000100A0
:100850000100000001000100010001000100010091
:100860000100010001000100010001000100010080
:100870000100010001000100010001000100010070
:100880000100010001000100010001000100000061
:100890000100010001000100010001000100010050
:1008A0000100000001000100010001000100010041
:1008B0000100010001000000010001000100010031
:1008C0000100010001000100010000000100010021
:1008D0000100010001000100010001000100000011
:1008E0000100010001000100010001000100010000
:1008F00001000100010001000100010001000100F0
:1009000001000100010001000100010001000100DF
:1009100001000100010001000100000001000100D0
:1009200001000100010001000100010001000000C0
:1009300001000100010001000100010001000100AF
:1009400001000000010001000100010001000100A0
:100950000100010001000000010001000100010090
:1009600001000100010001000100000012036B0002
:100970006500790062006F00610072006400000091
:10098000160371006D006B006200750069006C0059
:1009900064006500720000000403090409026D0090
:1009A000040100A0FA09040000010301010009216B
:1009B000110100012240000705810308000A090413
:1009C00001000103010200092111010001224D0073
:1009D0000705820308000A09040200010300000061
:1009E0000921110100012236000705830308000ACE
:1009F0000904030001030000000921110100012284
:100A000039000705840320000112011001000000D5
:100A100008EDFE606001000102000105010906A168
:100A200001050719E029E7150025019508750181E1
:100A300002050819012905950575019102950175B1
:100A40000391010507190029F71500250195F8758F
:100A5000018102C005010980A1018502160100265D
:100A600003001A81002A8300751095018100C005DA
:100A70000C0901A1018503160100269C021A010040
:100A80002A9C02751095018100C005010902A1018F
:100A90000901A10005091901290515002501950580
:100AA0007501810295017503810105010930093144
:100AB0001581257F95027508810609381581257FE6
:100AC000950175088106050C0A38021581257F9568
:100AD0000175088106C0C005010906A101050719B5
:100AE000E029E7150025019508750181029501753A
:100AF00008810105081901290595057501910295DF
:100B000001750391010507190029FF150026FF0053
:100B1000950675088100C00011241FBECFEFDAE0F2
:100B2000DEBFCDBF04B603FE27C080915102909175
:100B30005202A0915302B09154028730904BA740CB
:100B4000B04BD1F410925102109252021092530203
:100B50001092540214BE84B7877F84BF0FB6F894F6
:100B6000A895809160008861809360001092600079
:100B70000FBEE0E0F8E3099511E0A0E0B1E0ECED94
:100B8000F8E402C005900D92A833B107D9F722E02E
:100B9000A8E3B1E001C01D92A135B207E1F70E94C0
:100BA000841D0C9440240C94000090E080E0089593
:100BB0000895089581E00895089581E008950C94C2
:100BC000DA050E948C0F2FEF84E39CE021508040D7
:100BD0009040E1F700C000000C94BF17EF92FF9225
:100BE0000F931F93CF93DF938C01FC01E080F18082
:100BF00080917E01811140C082818823C1F1C701AB
:100C00000E941115C82F682FC7010E94BA14B7019E
:100C10008C2F0E942607EC01B8010E94DF05882373
:100C200009F44BC0B801CE010E942F09882309F4B2
:100C300044C0C531F0E7DF0720F5C23080E7D807B0
:100C400008F04DC0C115E0E7DE0791F1C130D04793
:100C5000E1F181E080933A0180933B01C801DF918B
:100C6000CF911F910F91FF90EF900C94DD05C7017C
:100C70000E94E814C82FCBCFC7010E941115B701FD
:100C8000C8CFCC3380E7D80709F49BC0CD33D04719
:100C900001F7F8018281882309F4BAC010923B0160
:100CA0000E946B17909339018093380180E296C0BF
:100CB000F801828181110E94E10580E0DF91CF91EE
:100CC0001F910F91FF90EF900895F8018281882382
:100CD000A1F380911102816080931102EECFF8019F
:100CE0008281882309F4BACF0E94CC16811102C0F8
:100CF0000E94B2160E94E91690E0909343028093FE
:100D00004202FE01E350F047809142028160E231ED
:100D1000F10538F4EE5BFB4D0C94F0238091420218
:100D2000826080934202809142020E94ED160E94EE
:100D30008C0FC3CF809142028460F3CF8091420236
:100D40008860EFCF809142028061EBCF80914202B8
:100D50008062E7CF809142028064E3CF80914202BB
:100D60008068DFCF809142028C60DBCF80914202AD
:100D70008E7FD7CF809142028D7FD3CF8091420268
:100D80008B7FCFCF80914202877FCBCF8091420271
:100D90008F7EC7CF809142028F7DC3CF8091420268
:100DA0008F7BBFCF809142028F77BBCF8091420271
:100DB000837FB7CF90914202892F97FB87F98058A4
:100DC000B0CFF8018281882361F010923A010E942D
:100DD0006B17909339018093380182E00E94F10CE7
:100DE0006CCF80913A0181110FC0809138019091B0
:100DF00039010E947717883C910530F486E20E9401
:100E0000C60B86E20E94A20C82E00E94F80C55CF2D
:100E100080913B0181110FC080913801909139017F
:100E20000E947717883C910530F487E20E94C60B38
:100E300087E20E94A20C80E2E8CF0C947E090C9419
:100E400080090C94DC050C9421070895972F70E01D
:100E50002AE0929F600D711D1124FB0196E4899F89
:100E6000E00DF11D1124EE0FFF1FE455FF4F85919A
:100E700094910895FC01EE0FFF1FE459F64F859100
:100E8000949108950E9426070E94B3089C01811541
:100E900040E4940708F097C0211580E3380708F074
:100EA000FAC0203E310508F074C0203C310508F03E
:100EB000E5C0283A310588F4253A310508F0E2C04A
:100EC0002130310509F477C0C9010497813A9105B1
:100ED00008F471C030E020E06EC0C901885A910961
:100EE0004597C0F7283A310509F4FEC0293A310583
:100EF00009F4FDC02A3A310509F4FCC02B3A31054A
:100F000009F4FBC02C3A310509F4FAC02B3B31053A
:100F100009F4F9C02C3B310509F4F8C02D3A31052C
:100F200009F4F7C0203B310509F4F6C02E3A31052B
:100F300009F4F5C02F3A310509F4F4C0213B31051D
:100F400009F4F3C0223B310509F4F2C0233B31051B
:100F500009F4F1C0243B310509F4F0C0253B31050B
:100F600009F4EFC0263B310509F4EEC0273B3105FB
:100F700009F4EDC0283B310509F4ECC0293B3105EB
:100F800009F4EBC02A3B310509F4EAC020E034E45F
:100F900012C0211590E2390780F42F3F310509F086
:100FA00050F4283E310538F0C901805F9109306561
:100FB000409708F08FCFC9010895C9019F700E9422
:100FC0003A079C01F8CF8115944508F041C02115DE
:100FD00083E5380708F06AC0211592E5390738F52E
:100FE000211541E5340708F05CC0211580E538077C
:100FF00008F454C0C90134E0969587953A95E1F715
:101000008370422F46954695437090E2499FA00118
:101010001124582B822F837021E030E002C0220F70
:10102000331F8A95E2F7242B352B3C68C4CFC901C6
:101030008370992741E050E002C0440F551F8A9504
:10104000E2F72695269580E2289F90011124EBCFA8
:10105000211596E5390748F4922F88272115354543
:10106000C8F59C01246F306AA6CFC90190563F7025
:101070008115904108F02ECF30629DCFC901805C70
:1010800091099DCF253A310549F1263A310549F5B7
:1010900022E830E490CF3327306C8DCF3F70306A38
:1010A0008ACF322F2227216F306A85CFC901837002
:1010B000992741E050E002C0440F551F8A95E2F79E
:1010C0002695269580E2289F90011124242B352B0C
:1010D0003A6871CF88279F719C01CECF21E830E418
:1010E0006ACF23E830E467CF22EE34E464CF29EE00
:1010F00034E461CF2AEE34E45ECF25EB34E45BCFF9
:1011000026EB34E458CF23EB34E455CF24EB34E41E
:1011100052CF27EB34E44FCF2CEC34E44CCF2DEC02
:1011200034E449CF23E835E446CF2AE835E443CF19
:1011300022E935E440CF24E935E43DCF21E236E42D
:101140003ACF23E236E437CF24E236E434CF25E247
:1011500036E431CF26E236E42ECF27E236E42BCF39
:101160002AE236E428CF803E910581F1C8F481332C
:10117000910509F462C048F48932910509F456C01A
:101180008A32910509F460C0089589339105B9F058
:1011900082389105A1F08533910509F440C0089586
:1011A000863E910561F138F4823E9105B1F0833EAF
:1011B0009105E1F00895873E910551F10895209140
:1011C00042022370D9F080EE90E00895209142020F
:1011D00020FF14C089E390E008952091420222FF8D
:1011E0000DC024FD09C083EE90E0089520914202D5
:1011F00022FD31C024FF02C090E080E008952091DC
:10120000420223FFFBCF24FDF7CF87EE90E0089545
:101210002091420223FFEECF86EE90E008952091C8
:10122000420225FFEBCF89E290E00895209142022F
:1012300025FFE4CF85E390E008952091420226FF48
:10124000DDCF8AE290E008952091420226FFD6CFBA
:1012500081E390E0089582EE90E0089508950F9361
:101260001F93CF938C01FB018281811106C0C1E0E5
:101270008C2FCF911F910F910895C0914901C111F9
:1012800025C00531104799F70E942E0981E080930F
:1012900049010E946B179093480180934701109277
:1012A0003C0110923E0110923D01109240011092BB
:1012B0003F0110924201109241011092440110929C
:1012C00043011092460110924501D2CF809147010F
:1012D000909148010E947717883C910540F68091D3
:1012E0003C01E82FF0E0EE0FFF1FE35CFE4F11839F
:1012F00000838F5F80933C01C0E0BACF0C94D80587
:101300000C94D90585B7806885BF85B7806885BF8F
:10131000ADE1B1E061E070E08D91E82FE295EF7012
:10132000F0E041A18F709B0101C0220F8A95EAF77E
:10133000922F9095942391A382A1822B82A381E086
:10134000A432B80749F7A3E1B1E061E070E08D9104
:10135000E82FE295EF70F0E041A18F709B0101C092
:10136000220F8A95EAF7922F9095942391A382A158
:10137000822B82A381E0AD31B80749F7E8E5F1E0BF
:10138000AAE4B1E086E691E0119211921D921D92BD
:101390008E179F07C9F70C941D072F923F924F920B
:1013A0005F926F927F928F929F92AF92BF92CF92F5
:1013B000DF92EF92FF920F931F93CF93DF930AE494
:1013C00011E08DE1C82E81E0D82E1801EE24E394BF
:1013D000F12C66246394D1018D909D901D011E9285
:1013E0001E92E60189916E01E82FE295EF70F0E020
:1013F00091A18F70970101C0220F8A95EAF7892F7A
:10140000822B81A382A1722E7094872182A3D0EABD
:10141000DA95F1F763E171E090E080E0EB0159903B
:10142000BE01452D42954F7050E0EA0148A0AD90B5
:10143000BC901197552D5F70E70102C0CC0FDD1FE6
:101440005A95E2F7AE01442109F059C0A701082ED0
:1014500002C0440F551F0A94E2F74A295B291196EE
:101460005C934E9301968A309105C1F681A1782252
:1014700071A282A1282B22A38D919C918816990696
:1014800041F0609266010E946B179093680180930F
:101490006701D8E52D16D1E03D0609F09CCF80917B
:1014A00066018823B1F080916701909168010E94E4
:1014B0007717069770F0E8E5F1E0D8018D919D91DE
:1014C0008D0181939193B1E008351B07B1F710921C
:1014D00066010E941F0781E0DF91CF911F910F915C
:1014E000FF90EF90DF90CF90BF90AF909F908F9044
:1014F0007F906F905F904F903F902F90089550E0B5
:1015000040E0ABCFE82FF0E0EE0FFF1FE85AFE4FB0
:10151000808191810895089590936E0180936D016B
:101520000895E0916D01F0916E01309721F00190E6
:10153000F081E02D099480E00895E0916D01F09133
:101540006E01309721F00280F381E02D0994089517
:10155000E0916D01F0916E01309721F00480F581EA
:10156000E02D0994089520916B0130916C012817AA
:10157000390771F090936C0180936B01E0916D01DC
:10158000F0916E01309721F00680F781E02D0994EB
:1015900008952091690130916A012817390771F087
:1015A00090936A0180936901E0916D01F0916E0161
:1015B000309721F00084F185E02D09940895089575
:1015C0000C94DF0A0E9462170E9482090C942C1866
:1015D0005F926F927F928F929F92AF92BF92CF92C3
:1015E000DF92EF92FF920F931F93CF93DF9300D080
:1015F00000D00F92CDB7DEB70E94CD0990E7A92E9B
:1016000091E0B92E10E000E088248394912C502EB4
:10161000802F0E94820A7C01F501C190D1905F0168
:10162000C816D90609F45DC08091110281FD0E949F
:101630008B0A90E080E0CE24DF243401082E02C023
:10164000660C771C0A94E2F7960126213721232B9A
:1016500009F442C089835A82E620F72081E0EF280E
:1016600009F480E08B830E946B178160782F9D8343
:101670008C8349815A816B818D810E949D0B000F63
:10168000111FF801E059FE4F80819181682679266B
:10169000718260820E94D91A0E94910A90916F0112
:1016A0008917B1F10E94910A80936F010F900F90FA
:1016B0000F900F900F90DF91CF911F910F91FF909E
:1016C000EF90DF90CF90BF90AF909F908F907F90E2
:1016D0006F905F900C94230701968A30910509F072
:1016E000ACCF0F5F1F4F0730110509F090CF8FEF80
:1016F00089838A831B820E946B178160782F9D8368
:101700008C8349815A816B818D810E949D0BC2CF50
:101710000F900F900F900F900F90DF91CF911F912E
:101720000F91FF90EF90DF90CF90BF90AF909F9080
:101730008F907F906F905F900895CF93DF93CDB798
:10174000DEB72B970FB6F894DEBF0FBECDBF4F8329
:10175000588769877A878B871E8285E0FE013796D6
:10176000DE01119601900D928A95E1F749815A8127
:101770006B817C818D819E812B960FB6F894DEBFA4
:101780000FBECDBFDF91CF910C941412882309F4C2
:10179000D8C0823871F40E94910A81FDD2C089E3D9
:1017A0000E94B9150E94831689E30E94F6150C94D5
:1017B0008316833859F40E94910A80FDC2C083E5E4
:1017C0000E94B9150E94831683E5EFCF843859F43F
:1017D0000E94910A82FDB5C087E40E94B9150E945B
:1017E000831687E4E2CF9CEF980F913A18F40E9499
:1017F000B915DDCF90E2980F983050F4877091E0E2
:1018000001C0990F8A95EAF7892F0E943A16CFCF27
:101810009BE5980F933070F4853A31F0863A39F0B1
:1018200083E890E00C94B30A81E890E0FBCF82E873
:1018300090E0F8CF98E5980F953108F082C0883A8B
:1018400009F440C0893A09F440C08A3A09F440C01A
:101850008B3A09F440C08C3A09F440C08B3B09F440
:1018600040C08C3B09F440C08D3A09F440C0803B35
:1018700009F440C08E3A09F440C08F3A09F440C0E0
:10188000813B09F440C0823B09F440C0833B09F42A
:1018900040C0843B09F440C0853B09F440C0863B0E
:1018A00009F440C0873B09F440C0883B09F440C0BC
:1018B000893B09F440C08A3B09F440C090E080E0D5
:1018C0000C94C90A82EE90E0FBCF89EE90E0F8CF4D
:1018D0008AEE90E0F5CF85EB90E0F2CF86EB90E0DA
:1018E000EFCF83EB90E0ECCF84EB90E0E9CF87EB98
:1018F00090E0E6CF8CEC90E0E3CF8DEC90E0E0CF91
:1019000083E891E0DDCF8AE891E0DACF82E991E0E7
:10191000D7CF84E991E0D4CF81E292E0D1CF83E2C6
:1019200092E0CECF84E292E0CBCF85E292E0C8CFC6
:1019300086E292E0C5CF87E292E0C2CF8AE292E0EF
:10194000BFCF0895882309F44BC0823871F40E94F8
:10195000910A81FF45C089E30E94B9150E94831650
:1019600089E30E94F6150C948316833859F40E947B
:10197000910A80FF35C083E50E94B9150E94831645
:1019800083E5EFCF843859F40E94910A82FF28C082
:1019900087E40E94B9150E94831687E4E2CF9CEF8A
:1019A000980F913AF0F290E2980F983050F48770C7
:1019B00091E001C0990F8A95EAF7892F0E9440169D
:1019C000D2CF9BE5980F933020F490E080E00C9408
:1019D000B30A885A853120F490E080E00C94C90A5B
:1019E0000895882321F00E943A160C9483160895D6
:1019F000882321F00E9440160C94831608958F923C
:101A00009F92AF92BF92DF92EF92FF920F931F933C
:101A1000CF93DF9300D000D00F92CDB7DEB77C011B
:101A20006D837983FC01058102950F70128111117C
:101A30000E9459160E94B215D82E882371F01123E6
:101A4000A1F08D81805E883080F082E00E949C153C
:101A50000E94B21591E0D82ED926E981E295EF7067
:101A6000F0E0EC5AFB4D0C94F023D12CF6CF098119
:101A70000F70F981F07F11F00295007F1123B1F012
:101A8000002361F08D81805E883018F02D81211156
:101A900009C0802F0E943A160E9483168D810E94F1
:101AA000C60B15C0802F0E944B16F6CF8D810E9469
:101AB000A20C002361F08D81805E883018F03D819A
:101AC000311129C0802F0E9440160E948316DD200C
:101AD00009F4D3C10E948F1580FDCFC1F701128296
:101AE0000E9489150E94D213C7010E944E0F0E94C6
:101AF00089150F900F900F900F900F90DF91CF915D
:101B00001F910F91FF90EF90DF90BF90AF909F904B
:101B10008F900C94F413802F0E945116D6CF4981D8
:101B20004F70B42E5981507F503219F0B29480EF2B
:101B3000B8228D81882369F0813029F1112369F160
:101B4000002359F0F701858180FFA8CF8F7085832E
:101B500004C0112361F0011104C08B2D0E94F10C0F
:101B6000B6CF8B2D0130D1F70E946D16B0CF011189
:101B700006C00E9470168B2D0E94F80CA8CF013071
:101B800009F4A5CFF6CF112321F0063008F09FCF3E
:101B9000E4CF053008F09BCFEECF002361F38D81B9
:101BA0000E94A20C94CF898186958695837069F0F6
:101BB000813009F08CCF8D8199819370111102C011
:101BC00090E080E00E94C90A82CF8D819981937054
:101BD000111102C090E080E00E94B30A78CF8D819D
:101BE000112329F00E94E7190E94CE1A70CF0E949B
:101BF0004F1AFACF8981837009F05FC0111167CF46
:101C00002D81229526952770220F220F8D818F70AE
:101C100090E0B0E0A0E04C015D01022E04C0880C11
:101C2000991CAA1CBB1C0A94D2F7FD8160E070E0ED
:101C3000CB01F4FF0FC06FE070E080E090E004C0E3
:101C4000660F771F881F991F2A95D2F760957095A8
:101C50008095909529812695269523702D83223095
:101C6000B1F0233019F19B01AC01282939294A2907
:101C70005B2929833A834B835C833D8169817A8127
:101C80008B819C813130B1F00E945F1320CF9B018A
:101C9000AC01282939294A295B2929833A834B83B6
:101CA0005C83CA01B9010E94891311CF0E945F139E
:101CB000C501B4010E9435130ACF8695112311F096
:101CC00089818170882309F402CF2D812295269580
:101CD0002770220F220F8D818F7090E0B0E0A0E07E
:101CE0004C015D01022E04C0880C991CAA1CBB1C6F
:101CF0000A94D2F73D8160E070E0CB0134FF0FC061
:101D00006FE070E080E090E004C0660F771F881FEE
:101D1000991F2A95D2F76095709580959095498185
:101D20004695469543704D834230B1F0433019F1EA
:101D30009B01AC01282939294A295B2929833A8347
:101D40004B835C833D8169817A818B819C813130B9
:101D5000B1F00E946514BBCE9B01AC012829392942
:101D60004A295B2929833A834B835C83CA01B901E1
:101D70000E948F14ACCE0E946514C501B4010E946C
:101D80003B14A5CE3D81323F09F447C080F4303F7B
:101D900079F1313FD9F1832F805E8031D0F011236A
:101DA00009F456C001117ACE89818F7133C04D81FB
:101DB000433FD1F1443F99F7112309F43FC0898192
:101DC0008F7189830E94D21363E089810E949315E9
:101DD0007ECE5D815F705D8389818F71112321F0DB
:101DE0000E94D2138D81BACE0E94F4138D81C4CE8D
:101DF000112341F0053008F06ACE89818F710E946D
:101E0000191465CE063008F062CEF7CF89818F7144
:101E1000112339F00E94D2135ACE89818F71112378
:101E2000C9F30E94F41353CE112329F089818F71D5
:101E30000E94BD134CCE0E94B31349CE81E00E9494
:101E40009C15023008F443CE82E00E949C153FCEE0
:101E50000111A5CE89818F71E4CF49814F706D81C9
:101E6000C7010E94D5050E94AE1231CE49814F7044
:101E70006D81C7010E9425072ACE0F900F900F9009
:101E80000F900F90DF91CF911F910F91FF90EF90E6
:101E9000DF90BF90AF909F908F9008950F931F9306
:101EA000CF93DF93EC018B819C81892B29F0888172
:101EB000998189238F3F29F4DF91CF911F910F9151
:101EC0000895CE010E94EE058823B1F368817981DF
:101ED0008A810E945F158C010E94B9140E942A1306
:101EE000B801CE01DF91CF911F910F910C94FF0C9F
:101EF0000E9459160E946A160E942C160E94831690
:101F00000E94BF1B0E94CE1A90E080E00E94B30A9C
:101F100090E080E00C94C90A0E9448160C94780F57
:101F20000E945315282F892F82958F70903C80F442
:101F30008A30B0F4843020F4823090F480E0089548
:101F40008630E1F781E0203E88F0213FB9F70EC0EE
:101F50008C3011F08F3091F793FB882780F908952A
:101F600081E0203F39F018F4203E40F70895243FE7
:101F700029F7FCCF0895CF93DF9300D000D00F92C4
:101F8000CDB7DEB70F900F900F900F900F90DF91AD
:101F9000CF910895CF93DF9300D000D000D0CDB77C
:101FA000DEB726960FB6F894DEBF0FBECDBFDF9129
:101FB000CF9108951F93CF93DF93E0917F0116E0B7
:101FC000809180018E1304C0DF91CF911F910895FD
:101FD000CE2FD0E01E9FF0011124EF57FE4F40811D
:101FE000518162817381848195810E94CA0FFE01B3
:101FF0003196E770E5CF4091B1015091B201609107
:10200000B3017091B4018091B5019091B6010C9427
:10201000CA0F1F93CF93DF938091B601807FC1F4E5
:102020008091B3018823A1F080917F01C09180014C
:102030006091B1017091B2014091B4015091B5012C
:10204000D62FD723DA01A095B09516E0C81304C0A7
:10205000DF91CF911F91089590E04115510511F046
:10206000DF3F31F401968770F1CF2A0F3B1F17C075
:10207000189FF001199FF00D1124EF57FE4F218199
:102080002713F0CF20812613EDCF22812111EACF33
:10209000238134812417350740F3241B350B283C5A
:1020A000310500F72091B6012F7020612093B60111
:1020B00026E0289FF001299FF00D1124EA57FE4FDA
:1020C00080818F708061808381EB91E00E944E0F50
:1020D000DF91CF911F910C94DA0F9F92AF92BF9234
:1020E000CF92DF92EF92FF920F931F93CF93DF93E4
:1020F000CDB7DEB72B970FB6F894DEBF0FBECDBFBE
:102100008C0185E0F801DE01179601900D928A9509
:10211000E1F7D8014C9111965C9111971296EC90D1
:1021200012978091B4019091B501009709F46BC1A9
:102130002091B1013091B201632F62236F3F09F406
:1021400062C11396CD90DC909090B301992009F470
:10215000F8C0C816D90608F43FC0F601E81BF90B11
:10216000CF01FF24F394883C910508F0F12C81EB1A
:10217000A82E81E0B82E8091B601982F907FFF2085
:1021800009F4B7C0911180C0FE2C35132AC0241366
:1021900028C0E11026C08F7080618093B6010E9434
:1021A000FB0FC5010E944E0F8091B601D801159614
:1021B0008C938F2D2B960FB6F894DEBF0FBECDBF3C
:1021C000DF91CF911F910F91FF90EF90DF90CF9013
:1021D000BF90AF909F900895809590958C0D9D1D18
:1021E000C0CFCD2829F0842F85238F3F09F019C156
:1021F00080E0B82FB170DB2EE0917F01209180014B
:1022000036E080FD1CC0EE20A1F28091B601816015
:102210008093B601F12CCDCF8E2F90E03E9FF00140
:102220001124EF57FE4F6181651306C0608164136E
:1022300003C062816E11E7CFFC013196E770E213B3
:10224000EBCF4F8358878F8198850E945315292F94
:1022500022952F70903260F0225F2F70223078F438
:102260009F7051F0F8019581907F31F4D12C0AC014
:102270009F7011F08823D1F3805E8830B8F3C801D5
:102280000E944E0FFD2C95CF351306C0241304C0B9
:10229000D801EE2009F47BC04F8358878F81988541
:1022A0000E94900F882309F4B8C0EE2009F4B5C04D
:1022B0008091B601803270F02091B1013091B2016D
:1022C0003A8329831B82DD82CC828E83CE010196E4
:1022D0000E944E0F86E0F801A1EBB1E001900D9253
:1022E0008A95E1F70E9409100E94FB0FFF24F394E6
:1022F00060CF911113C07C2DDB86CA866E2D8B8535
:102300000E94BB0F81EB91E00E944E0F86E0F50129
:1023100011928A95E9F70E94FB0F4BCF3513BCCF82
:102320002413BACFE110B8CFD80115968C93C80109
:102330000E944E0F86E0F50111928A95E9F7F92C7B
:1023400038CFC816D90688F1B601681B790BCB01C6
:10235000F12C883C910508F047C0FE2CEE2009F4D2
:102360005CC0351330C024132EC08091B60180FDAF
:1023700021C0982F907FF1F0D80115968C93159776
:10238000903F39F0982F907F905F8F70892B159632
:102390008C93C8010E944E0F86E0F801A1EBB1E0DA
:1023A00001900D928A95E1F7B6CF809590958C0DAE
:1023B0009D1DCECF86E0F801A1EBB1E001900D921A
:1023C0008A95E1F7F6CE4F8358878F8198850E94D2
:1023D000900F81117FCF8091B60181608093B6010B
:1023E000C8010E944E0FE5CE7C2DDB86CA866E2D7D
:1023F0008B850E94BB0F86E0E1EBF1E0DF011D92CF
:102400008A95E9F788CFEE2041F04F8358878F8176
:1024100098850E94900F81115DCFC8010E944E0FD8
:1024200065CF81E08E25E5CE1F93CF93DF93CDB7A7
:10243000DEB72C970FB6F894DEBF0FBECDBF4F832B
:10244000588769877A878B879C87CE0107960E9479
:102450006D10882369F08A859B85892B39F04F811F
:102460005885842F85238F3F09F071C016E05FC027
:1024700086E0FE013796DE01119601900D928A9555
:10248000E1F78A859B85892B89F388859F8189233C
:102490008F3F61F32091800130E0C9010196877080
:1024A000992740917F014817190671F40E948C0FFB
:1024B0001092800110927F0186E0E1EBF1E0DF01F4
:1024C0001D928A95E9F7D2CF96E0929FD001939F13
:1024D000B00D1124AF57BE4FFE01319601900D9201
:1024E0009A95E1F7809380010E94DA0FBFCF819F18
:1024F000C00111248F579E4F0E946D108823E9F070
:10250000E0917F011E9FF0011124EF57FE4F4081A3
:10251000518162817381848195810E94CA0F80916B
:102520007F0190E001968770992780937F018091C9
:102530007F01909180018913DACF2C960FB6F89421
:10254000DEBF0FBECDBFDF91CF911F91089569858A
:102550007A858B859C850E94CA0F88CFEF92FF9267
:102560000F931F93CF93DF938C01892B89F0F12C6C
:10257000EE24E394E8012196F8018491843709F46C
:1025800057C0A0F4823009F43EC048F48130D1F045
:10259000DF91CF911F910F91FF90EF9008959CEFE5
:1025A000980F9037A8F70E94C60B0AC0853709F428
:1025B0004CC09CE7980F903758F78F770E94A20C79
:1025C0008E0116C00E5F1F4FFE01849190E2980F9E
:1025D000983060F48770FE2D01C0FF0F8A95EAF7EE
:1025E0008F2F0E945C160E94831602C00E94C60BA9
:1025F0008F2D815008F4BECFEFE9FFE03197F1F75E
:1026000000C00000F6CF0E5F1F4FFE01849190E2E4
:10261000980F983050F48770FE2D01C0FF0F8A95F7
:10262000EAF78F2F0E946216DECF0E94A20CE0CF45
:102630000E5F1F4FFE01C491C150D0F28FE99FE0A1
:102640000197F1F700C00000F7CF0E5F1F4FFE01AA
:10265000F490CECF08956093E8017093E9018093E0
:10266000EA019093EB010C94780FCF93DF9300D0A5
:1026700000D0CDB7DEB769837A838B839C8380914A
:10268000E8019091E901A091EA01B091EB01298163
:102690003A814B815C81822B932BA42BB52B8093A9
:1026A000E8019093E901A093EA01B093EB010F9048
:1026B0000F900F900F90DF91CF910C94780FCF93E4
:1026C000DF9300D000D0CDB7DEB769837A838B83E8
:1026D0009C838091E8019091E901A091EA01B09179
:1026E000EB0129813A814B815C8182239323A423CE
:1026F000B5238093E8019093E901A093EA01B09398
:10270000EB010F900F900F900F90DF91CF910C94F1
:10271000780FCF93DF9300D000D0CDB7DEB76983B9
:102720007A838B839C838091E8019091E901A09149
:10273000EA01B091EB0129813A814B815C818227CA
:102740009327A427B5278093E8019093E901A093EC
:10275000EA01B093EB010F900F900F900F90DF9173
:10276000CF910C94780F1092E4011092E501109231
:10277000E6011092E7010C94780F41E050E060E030
:1027800070E004C0440F551F661F771F8A95D2F76B
:102790004093E4015093E5016093E6017093E701F3
:1027A0000C94780F282F81E090E0A0E0B0E004C006
:1027B000880F991FAA1FBB1F2A95D2F74091E401E9
:1027C0005091E5016091E6017091E701842B952B12
:1027D000A62BB72B8093E4019093E501A093E6012B
:1027E000B093E7010C94780F41E050E060E070E0B6
:1027F00004C0440F551F661F771F8A95D2F7409576
:102800005095609570958091E4019091E501A091BB
:10281000E601B091E70184239523A623B723809393
:10282000E4019093E501A093E601B093E7010C94D5
:10283000780F282F81E090E0A0E0B0E004C0880F7E
:10284000991FAA1FBB1F2A95D2F74091E40150910E
:10285000E5016091E6017091E70184279527A6279D
:10286000B7278093E4019093E501A093E601B0932C
:10287000E7010C94780FCF93DF9300D000D0CDB751
:10288000DEB769837A838B839C838091E401909186
:10289000E501A091E601B091E70129813A814B81E0
:1028A0005C81822B932BA42BB52B8093E401909316
:1028B000E501A093E601B093E7010F900F900F9010
:1028C0000F90DF91CF910C94780FCF93DF9300D0CE
:1028D00000D0CDB7DEB769837A838B839C838091E8
:1028E000E4019091E501A091E601B091E701298111
:1028F0003A814B815C8182239323A423B523809367
:10290000E4019093E501A093E601B093E7010F90F5
:102910000F900F900F90DF91CF910C94780FCF9381
:10292000DF9300D000D0CDB7DEB769837A838B8385
:102930009C838091E4019091E501A091E601B09122
:10294000E70129813A814B815C8182279327A42763
:10295000B5278093E4019093E501A093E601B0933D
:10296000E7010F900F900F900F90DF91CF910C9493
:10297000780F0895E82F2AE0929FE00D11248E2F02
:10298000877041E001C0440F8A95EAF7E695E69525
:10299000E69585E0E89FF0011124E954FE4F30E010
:1029A00020E070E05191DF011197CB01022E02C0AF
:1029B000969587950A94E2F78170819585278423FF
:1029C00085278C932F5F3F4F2530310559F70895A8
:1029D000E82F2AE0929FE00D11249E2F9770E69534
:1029E000E695E69585E0E89FF0011124E954FE4F55
:1029F00050E040E080E0219130E0092E02C03695A1
:102A000027950A94E2F721703327042E01C0220F84
:102A10000A94EAF7822B4F5F5F4F4530510559F713
:102A20000895BF92CF92DF92EF92FF920F931F9380
:102A3000CF93DF938C01C090E401D090E501E0904A
:102A4000E601F090E7018091E8019091E901A09101
:102A5000EA01B091EB01C82AD92AEA2AFB2ACFE180
:102A6000D0E0BC2ED701C6010C2E04C0B695A795A8
:102A7000979587950A94D2F780FD0EC0219788F725
:102A8000B12C8B2DDF91CF911F910F91FF90EF9083
:102A9000DF90CF90BF900895B8018C2F0E9442071D
:102AA000019761F3EECFCF93DF93D82FC92F0E9408
:102AB00011156D2F7C2FDF91CF910C9442071F933E
:102AC000CF93DF93162FD72F90917E01992339F062
:102AD000862F972FDF91CF911F910C945315882348
:102AE00091F0862F972F0E941115C82F682F812FE4
:102AF0009D2F0E94BA14612F7D2F8C2FDF91CF91D3
:102B00001F910C944207862F972F0E94E814C82F1C
:102B1000F2CF8091EC0185958595859508958091FA
:102B2000EC018770089598E0899F90011124622B31
:102B30006093EC010C94D2139091EC018095892361
:102B40008093EC01282F277061F4282F082E000CA9
:102B5000330B9217130629F08595859585950C946E
:102B6000F41308959091EC01977081E009F480E0EE
:102B70000895909112019923E1F09091420297FFFC
:102B800018C0E82FE695E695E695EF3139F12091EA
:102B9000000130910101E20FF32FF11D877021E058
:102BA00030E001C0220F8A95EAF78181822B818370
:102BB00008952091000130910101F90132969FEFB3
:102BC00040E05191851751F09F3F19F4511101C018
:102BD000942F4F5F4E31A9F79F3F09F40895290FB5
:102BE000311D97FD3A95F901828308959091120164
:102BF000992301F19091420297FF1CC0E82FE695BE
:102C0000E695E695EF3139F120910001309101010F
:102C1000E20FF32FF11D877021E030E0A90102C01F
:102C2000440F551F8A95E2F7CA0180959181892347
:102C3000818308952091000130910101F9013296BC
:102C4000205E3F4F9191891303C0DF0111971C92C1
:102C5000E217F307B9F7089581E090E0E0910001F1
:102C6000F0910101E80FF91F108201968032910561
:102C7000A9F7089590911002982B9093100208954F
:102C8000982F9095809110028923809310020895C7
:102C900010921002089590910F02982B90930F02BA
:102CA0000895982F909580910F02892380930F02A9
:102CB000089510920F02089590910E02982B909310
:102CC0000E020895982F909580910E02892380938B
:102CD0000E02089510920E0208958093ED0108955A
:102CE0001092ED0108952091000130910101F90148
:102CF0003196205E3F4F80E0919191118F5FE217F6
:102D0000F307D1F70895E0910001F091010180915E
:102D100010028083E0910001F09101018081909187
:102D20000F02892B8083E0910001F09101018081E5
:102D300090910E02892B80839091ED01992361F08F
:102D4000E0910001F09101018081892B80830E9434
:102D5000731681111092ED01809100019091010193
:102D60000C949D0A6DEE7EEF90E080E00E942A2494
:102D700060E082E090E00E94182460E083E090E050
:102D80000E94182460E084E090E00E94182460E033
:102D900085E090E00C94182490E080E00E941224DA
:102DA0009C0181E02D3E3E4F09F080E0089582E0D5
:102DB00090E00C940A24682F82E090E00C94182490
:102DC00083E090E00C940A24682F83E090E00C9458
:102DD000182484E090E00C940A24682F84E090E0AA
:102DE0000C94182480914802843039F11092120218
:102DF00088E190E020E40FB6F894A89580936000F5
:102E00000FBE2093600080E00E94230783B7817F7C
:102E1000846083BF83B7816083BF7894889583B7CC
:102E20008E7F83BF0FB6F894A8958091600088616B
:102E300080936000109260000FBE08950895089579
:102E4000CF930E941E170E94CD090E941F17C0E059
:102E50008C2F0E94820A892B31F4CF5FC730C1F7D3
:102E600080E0CF91089581E0FCCF0E948C0F0E94FA
:102E7000910A0C9423071F921FB61F9211248F935F
:102E80009F93AF93BF9380911202811113C08091E1
:102E90003E0290913F02A0914002B09141024196C2
:102EA000A11DB11D80933E0290933F02A09340026A
:102EB000B0934102BF91AF919F918F911F901FBE20
:102EC0001F90189582E084BD93E095BD9AEF97BD61
:102ED00080936E0008952FB7F89480913E029091F0
:102EE0003F02A0914002B09141022FBF0895CF92BE
:102EF000DF92EF92FF929C014FB7F89480913E02CF
:102F000090913F02A0914002B09141024FBF6C01ED
:102F10007D01EE24FF24A90170E060E0C416D5060F
:102F2000E606F70638F0821B930BFF90EF90DF90D8
:102F3000CF9008950197F7CF1F921FB61F921124CB
:102F40008F939F93AF93BF9380913E0290913F02E6
:102F5000A0914002B09141020196A11DB11D809344
:102F60003E0290933F02A0934002B0934102BF9172
:102F7000AF919F918F911F901FBE1F9018950E9437
:102F8000B31FF8942FEF87EA91E6215080409040DC
:102F9000E1F700C0000087E090EBDC018093510274
:102FA00090935202A0935302B093540288E19CE0A4
:102FB0000FB6F894A895809360000FBE90936000C0
:102FC000FFCFAF92BF92CF92DF92EF92FF920F931B
:102FD0001F93CF93C0E0AA24A394B12CE82EF12C28
:102FE0008C2F0E94820A6C0110E000E0C501002EC7
:102FF00002C0880F991F0A94E2F78C219D21892B2A
:1030000099F0602F7C2F80E00E942607E816F906D1
:1030100059F481E0CF911F910F91FF90EF90DF90D5
:10302000CF90BF90AF9008950F5F1F4F0A301105EA
:10303000E9F6CF5FC730A1F680E0ECCFCF93C82F81
:103040008CE20E94E117882321F08C2FCF910C9401
:10305000E11780E0CF910895CF93DF9300D000D0A7
:10306000CDB7DEB70E94CC16811102C00E94B21605
:1030700095E6998308C00E94CD098FE39CE90197EA
:10308000F1F700C00000A981A150A983A111F3CFDD
:1030900089E20E941E18811110C18AE20E941E1846
:1030A00081110E94B21685E00E941E1881110E94B3
:1030B000BF170E94D7168093110287E00E941E1846
:1030C000882371F08BE10E941E18882309F4D1C077
:1030D00090911102892F8D7F91FF82608093110260
:1030E000809111020E94DB160E94E91690E09093F5
:1030F00043028093420280EE0E941E18882341F012
:1031000090914202892F8E7F90FF816080934202CE
:1031100089E30E941E18882341F090914202892F72
:103120008D7F91FF82608093420282EE0E941E1882
:10313000882341F090914202892F8B7F92FF846017
:103140008093420286EE0E941E18882341F09091DF
:103150004202892F877F93FF88608093420283EE2B
:103160000E941E18882341F090914202892F8F7E81
:1031700094FF80618093420285E30E941E18882399
:1031800041F090914202892F8F7D95FF806280935C
:10319000420281E30E941E18882341F0909142026E
:1031A000892F8F7B96FF80648093420281E10E9489
:1031B0001E18882341F090914202892F97FB87F9CE
:1031C000805880934202809142020E94ED1687E26D
:1031D0000E941E1889838EE10E941E18882319F010
:1031E000B981B260B9838FE10E941E18882319F05B
:1031F00029812460298380E20E941E18882319F007
:1032000039813860398381E20E941E18882319F0C1
:1032100049814061498382E20E941E18882319F087
:1032200059815062598383E20E941E18882319F045
:1032300089818064898384E20E941E188823B1F109
:1032400099819068998389810E94E4163981232F9E
:1032500030E050E040E029833A834B835C83CA012D
:10326000B9010F900F900F900F90DF91CF910C94B8
:103270002B138EE00E941E18882339F090911102C2
:10328000892F8B7F92FF846029CF80E10E941E18D6
:1032900090911102882329F0892F877F93FF8860FE
:1032A0001DCF892F8E7F90FF816018CFA981A1113A
:1032B000CACF0E94E016282FCBCF0F900F900F900F
:1032C0000F90DF91CF9108958091150280FF12C079
:1032D0006091050185E0689FB0011124759567959F
:1032E0007595679560387105A8F561157105A1F1AF
:1032F000862F089581FF09C06091050185E0689FD0
:10330000B001112475956795EDCF6091050182FD9F
:103310000AC0809116028823D1F090910401609137
:103320000501891728F085E0689FB0011124DACFE4
:10333000869FB001112485E0869F9001879F300D04
:103340001124692F70E0C9010E94DC23CBCF65E016
:1033500070E0CECF8FE7089581E008958091150247
:1033600080FF0CC06091030170E0759567957595BD
:1033700067956115710549F1862F089581FF06C093
:103380006091030170E075956795F3CF609103013B
:1033900082FD0BC0909116029923A1F06091020169
:1033A00080910301961738F0682F70E0603871053E
:1033B00000F38FE70895899FC001112470E00E94F7
:1033C000DC23F4CF61E070E0D7CF81E00895803F47
:1033D00031F40E9464198195809319020895813F08
:1033E00019F40E946419F8CF823F31F40E946419E5
:1033F0008195809318020895833F19F40E946419FF
:10340000F8CF893F29F40E94AE1980931A020895DB
:103410008A3F21F40E94AE198195F7CF8B3F31F49A
:103420000E94AE19819580931B0208958C3F19F478
:103430000E94AE19F8CF843F31F480911702816069
:10344000809317020895853F21F4809117028260CE
:10345000F7CF863F21F4809117028460F1CF873F38
:1034600021F4809117028860EBCF883F21F480918E
:1034700017028061E5CF8D3F31F4809115028160A4
:103480008093150208958E3F21F480911502826089
:10349000F7CF8F3FB9F7809115028460F1CF9091FB
:1034A0001802803F41F48091190287FD10921902A1
:1034B000992371F00895813F29F48091190218161B
:1034C000ACF3F6CF823F81F497FFF2CF109218024F
:1034D0008091190290911A02892B90911B02892BDD
:1034E00049F7109216020895833F19F4191674F3E0
:1034F000DFCF893F39F480911A021816CCF610926A
:103500001A02D6CF8A3F29F480911A0287FFD0CFC2
:10351000F6CF8B3F39F480911B0287FFC9CF109201
:103520001B02C6CF8C3F29F480911B021816BCF3F6
:10353000BFCF843F31F4809117028E7F80931702B2
:10354000B7CF853F21F4809117028D7FF7CF863F5B
:1035500021F4809117028B7FF1CF873F21F4809176
:103560001702877FEBCF883F21F4809117028F7E6F
:10357000E5CF8D3F31F4809115028E7F8093150247
:1035800097CF8E3F21F4809115028D7FF7CF8F3F2B
:1035900009F08ECF809115028B7FF0CF87E192E00A
:1035A0000E94A80A0E946B17909314028093130242
:1035B00008951F93CF93DF9300D000D000D0CDB7F4
:1035C000DEB780911302909114020E947717AC012C
:1035D000809116022091060130E0811106C02091F1
:1035E00007019AE0299F900111244217530788F0A0
:1035F00020911802A0911902A98310911A02B0918A
:103600001B02BE8321110FC09A2F912B9B2B09F017
:10361000B2C026960FB6F894DEBF0FBECDBFDF91C5
:10362000CF911F9108958F3F19F08F5F80931602FD
:10363000121624F40E9464198093180280911802D3
:1036400087FF05C00E946419819580931802298123
:10365000121624F40E9464198093190280911902B1
:1036600087FF05C00E94641981958093190280919B
:103670001802882309F455C0309119023D83332381
:1036800009F44FC0282F880F330B440B550B2983A7
:103690003A834B835C83CA01B9010E94E32223E38E
:1036A00033E343E35FE369837A838B839C8369819C
:1036B0007A818B819C810E94472369837A838B83E3
:1036C0009C8369817A818B819C810E94AB2260936B
:1036D00018028D81082E000C990BAA0BBB0B898355
:1036E0009A83AB83BC83BC01CD010E94E32223E318
:1036F00033E343E35FE369837A838B839C8369814C
:103700007A818B819C810E94472369837A838B8392
:103710009C8369817A818B819C810E94AB2260931A
:103720001902111624F40E94AE1980931A02809196
:103730001A0287FF05C00E94AE19819580931A0274
:103740009E81191624F40E94AE1980931B02809169
:103750001B0287FF05C00E94AE19819580931B0252
:1037600026960FB6F894DEBF0FBECDBFDF91CF9186
:103770001F910C94CE1A8F3F09F057CF68CF85E088
:10378000E7E1F2E0DF011D928A95E9F71092160257
:1037900010921502089580913C020895CF93DF9313
:1037A00000D00F92CDB7DEB720914802243019F532
:1037B00023E029838A839B832093E9008FEF9091F4
:1037C000E800815095FD06C095ED9A95F1F700004F
:1037D0008111F5CF8091E80085FF0DC050E040E0F9
:1037E00063E070E0CE0101960E942B1E8091E800FC
:1037F0008E778093E8000F900F900F90DF91CF911C
:103800000895CF93DF9300D00F92CDB7DEB79C0120
:1038100080914802843031F582E089832058310953
:103820003B832A8383E08093E9008FEF9091E80047
:10383000815095FD06C095ED9A95F1F70000811134
:10384000F5CF8091E80085FF0DC050E040E063E0D7
:1038500070E0CE0101960E942B1E8091E8008E77C9
:103860008093E8000F900F900F90DF91CF91089513
:10387000209148022430F1F422E02093E9002FEF58
:103880003091E800215035FD06C035ED3A95F1F74D
:1038900000002111F5CF2091E80025FF0BC050E07A
:1038A00040E065E070E00E942B1E8091E8008E777A
:1038B0008093E8000895CF93DF93D82FC92F80918C
:1038C00048028430F1F4909112019923E9F090912B
:1038D000420297FF19C08093E9008FEF9091E800B2
:1038E000815095FD06C095E19A95F1F70000811190
:1038F000F5CF8091E80050E040E060E270E085FDA7
:103900001AC0DF91CF91089581E08093E9008FEF95
:103910009091E800815095FD06C095ED9A95F1F7DC
:1039200000008111F5CF8091E80085FFEACF50E0DB
:1039300040E068E070E08D2F9C2F0E942B1E80914C
:10394000E8008E778093E80080E2ED2FFC2FACE159
:10395000B2E001900D928A95E1F7D3CF80914702B2
:10396000811109C00E94B31F0E9410208091E200C3
:1039700084608093E20008951092470208950895AC
:1039800008950C94351742E061EC81E00E942F1FEE
:1039900042E061EC82E00E942F1F42E061EC83E094
:1039A0000E942F1F42E261EC84E00C942F1F809153
:1039B0004A02893089F148F4823009F494C0833096
:1039C00009F44FC0813041F008958A3009F47BC07A
:1039D0008B3009F461C0089580914902813A09F061
:1039E0003FC08091E800877F8093E80080914D027E
:1039F00090914E02892B61F460E28CE192E070E0DC
:103A00000E947A1E8091E8008B778093E8000895E9
:103A100060E090E080E0F3CF80914902813201F5CF
:103A200080914D0290914E02009711F00397C1F4DE
:103A30008091E800877F8093E8008091E80082FF12
:103A40000BC08091F10080933C028091E8008B775D
:103A50008093E8000C94631F809148028111EDCFA0
:103A6000089580914902813AD9F780914D02909151
:103A70004E02892BA9F78091E800877F8093E800A8
:103A80008091E80080FFFCCF809112018093F100CB
:103A90008091E8008E77DCCF80914902813201F776
:103AA00080914D0290914E02892BD1F68091E800D1
:103AB000877F8093E8000E94631F80914B02809370
:103AC00012010C948C0F80914902813249F6809149
:103AD000E800877F8093E8000E94631F80914C027A
:103AE00080933D02089580914902813A09F0B8CF50
:103AF0008091E800877F8093E8008091E80080FF54
:103B0000FCCF80913D02C2CF84B7877F84BF0FB6C0
:103B1000F894A8958091600088618093600010926D
:103B200060000FBE80E880936100109261000E94E7
:103B3000E00A0E94B31F0E9410208091E20084607E
:103B40008093E20078940E9490220E94E20A88E02A
:103B500091E00E948C0A80914802853019F00E9401
:103B6000E80AF9CF0E94F21680914602882399F361
:103B70000E942017882379F30E94151EECCF9C0128
:103B8000DA01892F992783309105C1F068F48130DB
:103B9000910509F445C0029761F48DE690E02CE9A7
:103BA00039E02D933C93089581329105E1F082979D
:103BB00039F190E080E030E020E0F3CFC9019927AF
:103BC000213059F08230910559F0E8E9F9E0892B6C
:103BD00081F7849190E09F01E4CFE0E8F9E0F9CF2C
:103BE000ECE6F9E0F6CF643020F7E62FF0E0EE0FD8
:103BF000FF1FE05DFE4F2081318189E090E0D1CF51
:103C00006430B8F670E0FB01EE0FFF1FE85DFE4F79
:103C1000208131816C5D7E4FFB01808190E0C1CFBE
:103C200082E190E029E03AE0BCCF80E189BD82E109
:103C300089BD09B400FEFDCF8091D8008F7D8093AF
:103C4000D8008091E00082608093E0008091E000E5
:103C500081FDFCCF0895AF92BF92CF92DF92FF9289
:103C60000F931F93CF93DF936C01EB018A010E94A6
:103C7000821FF82E811123C00115110539F0F801BA
:103C800080819181C81BD90BC80ED91EB12CA12CE3
:103C90002097A9F08091E80085FD22C08091E8007E
:103CA0008E778093E80001151105A1F0F80180815D
:103CB0009181A80EB91EB182A08285E0F82E8F2DC9
:103CC000DF91CF911F910F91FF90DF90CF90BF9028
:103CD000AF9008950E94821F8823D1F2F82EEFCF73
:103CE000F60181916F018093F1002197FFEFAF1AE8
:103CF000BF0ACECFFC01CB0120914F023091500280
:103D00002617370790F0009729F42091E8002E77C6
:103D10002093E80040E0009751F4411108C08091E1
:103D2000E80082FF31C080E00895C901F3CF2091FF
:103D300048022223A9F12530A9F12091E80023FDB2
:103D40002DC02091E80022FDEACF2091E80020FF5D
:103D5000E2CF3091F3002091F200009719F0283063
:103D6000310558F041E02830310509F040E020915C
:103D7000E8002E772093E800CECF41914093F100E8
:103D800001972F5F3F4FE9CF80914802882341F090
:103D9000853041F08091E80083FFC1CF81E0089534
:103DA00082E0089583E00895FC01CB0120914F0249
:103DB000309150022617370790F0009729F4209190
:103DC000E8002E772093E80040E0009751F441117D
:103DD00008C08091E80082FF32C080E00895C901E8
:103DE000F3CF209148022223B1F12530B1F1209187
:103DF000E80023FD2EC02091E80022FDEACF2091AB
:103E0000E80020FFE2CF3091F3002091F20000970C
:103E100019F02830310558F041E02830310509F01B
:103E200040E02091E8002E772093E800CECF449127
:103E30004093F100319601972F5F3F4FE8CF80917B
:103E40004802882341F0853041F08091E80083FFEB
:103E5000C0CF81E0089582E0089583E00895982F0F
:103E6000973028F08F708093E90081E00895909357
:103E7000E900242F762F50E0981731F07091EC0074
:103E80002091ED005091F00021FD02C09F5FE8CF2E
:103E90003091EB003E7F3093EB003091ED003D7FA1
:103EA0003093ED003091EB0031603093EB00709374
:103EB000EC002093ED005093F0002091EE0027FDE0
:103EC000E5CF80E008958091490287FF13C080917B
:103ED000E80082FF06C08091E8008B778093E800BD
:103EE00004C0809148028111F2CF08958091480268
:103EF0008823D9F38091E80080FFF8CF8091E80013
:103F00008E77ECCF2091E4003091E50095E6A90191
:103F10002091EC00822F817020FF06C08091E80084
:103F200080FF06C080E008952091E80022FD1AC0BD
:103F300080914802882389F0853089F08091EB00D8
:103F400085FD0FC02091E4003091E5004217530732
:103F5000F9F29150E1F684E0089582E0089583E05B
:103F6000089581E008950E9421200E942920E0EE1A
:103F7000F0E0808181608083E8EDF0E080818F77E0
:103F8000808319BCA7EDB0E08C918E7F8C938081EB
:103F90008F7E80831092470208950F931F93CF93D3
:103FA000DF930E9421200E942920C8EDD0E0888163
:103FB0008F77888388818068888388818F7D8883D4
:103FC00019BC1092480210924402109246021092BC
:103FD000450200EE10E0F80180818B7F80838881AC
:103FE0008160888342E060E080E00E942F1FE1EE64
:103FF000F0E080818E7F8083E2EEF0E0808181605E
:104000008083808188608083F80180818E7F8083B7
:10401000888180618883DF91CF911F910F910895EE
:10402000E8EDF0E080818F7E8083E7EDF0E0808135
:104030008160808384E082BF81E0809347020C949A
:10404000CD1FE8EDF0E080818E7F80831092E2004A
:1040500008951092DA001092E10008951F920F92D5
:104060000FB60F9211242F933F934F935F936F934B
:104070007F938F939F93AF93BF93EF93FF93809121
:10408000E10082FF0BC08091E20082FF07C08091B7
:10409000E1008B7F8093E1000E948F228091DA0003
:1040A00080FF19C08091D80080FF15C08091DA0090
:1040B0008E7F8093DA008091D90080FF94C080E1E8
:1040C00089BD82E189BD09B400FEFDCF81E0809306
:1040D00048020E94AE1C8091E10080FF19C08091CF
:1040E000E20080FF15C08091E2008E7F8093E200A5
:1040F0008091E20080618093E2008091D80080622C
:104100008093D80019BC85E0809348020E94C01CAF
:104110008091E10084FF29C08091E20084FF25C0E6
:1041200080E189BD82E189BD09B400FEFDCF8091A7
:10413000D8008F7D8093D8008091E1008F7E80939E
:10414000E1008091E2008F7E8093E2008091E200A6
:1041500081608093E20080914402882309F449C081
:1041600084E0809348020E94C11C8091E10083FF9B
:1041700029C08091E20083FF25C08091E100877F04
:104180008093E10082E08093480210924402809183
:10419000E1008E7F8093E1008091E2008E7F80932A
:1041A000E2008091E20080618093E20042E060E002
:1041B00080E00E942F1F8091F00088608093F000C3
:1041C0000E94BF1CFF91EF91BF91AF919F918F9182
:1041D0007F916F915F914F913F912F910F900FBE03
:1041E0000F901F90189519BC109248020E94BC1C99
:1041F00072CF8091E30087FD02C081E0B2CF83E0FF
:10420000B0CF1F920F920FB60F9211242F933F93AE
:104210004F935F936F937F938F939F93AF93BF93CE
:10422000CF93DF93EF93FF93D091E900DF708091FC
:10423000EC00C82FC17080FDC0E81092E9008091A9
:10424000F000877F8093F00078940E9445211092BF
:10425000E9008091F00088608093F000CD2BCF7052
:10426000C093E900FF91EF91DF91CF91BF91AF91A2
:104270009F918F917F916F915F914F913F912F917E
:104280000F900FBE0F901F9018951F93CF93DF9341
:10429000CDB7DEB7AA970FB6F894DEBF0FBECDBF7D
:1042A00089E492E0FC0101962091F100208322E054
:1042B00081359207B9F70E94D71C8091E80083FFEF
:1042C00016C18091490290914A029A3008F00FC1BC
:1042D000E92FF0E0EC59FB4D0C94F023803881F08D
:1042E000823809F004C180914D028F708093E900FB
:1042F0008091EB0085FB882780F91092E90006C0C9
:104300008091450290914602911182609091E8005F
:10431000977F9093E8008093F1001092F1008091D4
:10432000E8008E77E0C0882309F4CEC0823009F01F
:10433000DEC080914B028111D1C080914D028F70FF
:1043400009F4D5C08093E9002091EB0020FFC6C09E
:10435000933031F48091EB0080628093EB00BEC01B
:104360009091EB0090619093EB0021E030E001C070
:10437000220F8A95EAF72093EA001092EA008091D2
:10438000EB008860EACF8111B2C010914B021F7719
:104390008091E3008078812B8093E3008091E80096
:1043A000877F8093E8000E94631F8091E80080FF70
:1043B000FCCF8091E30080688093E30082E01111DC
:1043C00083E08093480293C08058823008F08FC009
:1043D00080914B0290914C028C3D23E09207A1F515
:1043E00083E08A838AE289834FB7F894DE011396CB
:1043F00020E03EE051E2E32FF0E050935700E491DB
:1044000020FF03C0E295EF703F5FEF708E2F90E0CA
:10441000EA30C0F0C7968D939D932F5F243159F7F2
:104420004FBF8091E800877F8093E8006AE270E0E8
:10443000CE0101960E947A1E8091E8008B778093CE
:10444000E80055C0C096E7CFAE014F5F5F4F609167
:104450004D020E94BF1DBC01892B09F448C0809108
:10446000E800877F8093E80089819A810E94D41EAA
:10447000E3CF8038E1F58091E800877F8093E80002
:10448000809144028093F1004ACF811130C0909115
:104490004B02923060F58091E800877F8093E800BE
:1044A000909344020E94631F80914402882311F07C
:1044B00084E005C08091E30087FDFACF81E080931E
:1044C00048020E94C31C13C080914B02813079F4D2
:1044D00081E0933009F080E0809346021092E90079
:1044E0008091E800877F8093E8000E94631F80919D
:1044F000E80083FF0AC08091E800877F8093E8008E
:104500008091EB0080628093EB00AA960FB6F8943E
:10451000DEBF0FBECDBFDF91CF911F9108950895EB
:10452000CF93809148028823A1F0C091E900CF7019
:104530009091EC00892F817090FD80E8C82B10923B
:10454000E9008091E80083FD0E944521CF70C0936F
:10455000E900CF9108950E94B2226894B1110C94A1
:10456000412308950E94262388F09F5798F0B92F81
:104570009927B751B0F0E1F0660F771F881F991F98
:104580001AF0BA95C9F714C0B13091F00E944023D7
:10459000B1E008950C944023672F782F8827B85FE7
:1045A00039F0B93FCCF3869577956795B395D9F7F0
:1045B0003EF490958095709561957F4F8F4F9F4FFA
:1045C0000895E89409C097FB3EF490958095709506
:1045D00061957F4F8F4F9F4F9923A9F0F92F96E94F
:1045E000BB279395F695879577956795B795F111C4
:1045F000F8CFFAF4BB0F11F460FF1BC06F5F7F4F61
:104600008F4F9F4F16C0882311F096E911C0772372
:1046100021F09EE8872F762F05C0662371F096E87B
:10462000862F70E060E02AF09A95660F771F881F4A
:10463000DAF7880F9695879597F9089557FD905862
:10464000440F551F59F05F3F71F04795880F97FB56
:10465000991F61F09F3F79F0879508951216130610
:104660001406551FF2CF4695F1DF08C0161617063F
:104670001806991FF1CF8695710561050894089574
:10468000E894BB2766277727CB0197F908950E9406
:104690005A230C94CB230E94BD2338F00E94C423DC
:1046A00020F0952311F00C94B4230C94BA23112418
:1046B0000C9441230E941E2370F3959FC1F3950F24
:1046C00050E0551F629FF001729FBB27F00DB11D96
:1046D000639FAA27F00DB11DAA1F649F6627B00D26
:1046E000A11D661F829F2227B00DA11D621F739F0F
:1046F000B00DA11D621F839FA00D611D221F749F1D
:104700003327A00D611D231F849F600D211D822F63
:10471000762F6A2F11249F5750409AF0F1F088238A
:104720004AF0EE0FFF1FBB1F661F771F881F9150B7
:104730005040A9F79E3F510580F00C94B4230C948F
:1047400041235F3FE4F3983ED4F3869577956795D0
:10475000B795F795E7959F5FC1F7FE2B880F911DE1
:104760009695879597F9089597F99F6780E870E087
:1047700060E008959FEF80EC089500240A941616D7
:10478000170618060906089500240A94121613063F
:10479000140605060895092E0394000C11F48823CD
:1047A00052F0BB0F40F4BF2B11F460FF04C06F5FE9
:1047B0007F4F8F4F9F4F089597FB072E16F400945D
:1047C00007D077FD09D00E94F62307FC05D03EF400
:1047D000909581959F4F0895709561957F4F0895AD
:1047E000EE0FFF1F0590F491E02D0994AA1BBB1B4F
:1047F00051E107C0AA1FBB1FA617B70710F0A61BE1
:10480000B70B881F991F5A95A9F780959095BC0101
:10481000CD010895F999FECF92BD81BDF89A9927EF
:1048200080B50895A8E1B0E042E050E00C94322455
:10483000262FF999FECF92BD81BDF89A019700B459
:10484000021639F01FBA20BD0FB6F894FA9AF99AF9
:104850000FBE08950196272F0E9419240C94182446
:10486000DC01CB01FC01F999FECF06C0F2BDE1BD30
:10487000F89A319600B40D9241505040B8F708951F
:10488000F894FFCF8E069A069E06A206A606AA06F2
:10489000AE06B206B606BA06BE06C206C606CA0608
:1048A000CE06D206D606DA06370D370D8F0D8F0DE0
:1048B000D30DEF0D670D670DFA0D670DC20EC20E19
:1048C0002D0F670D670D360F6E21932177229321EF
:0C48D0007722C321E421772239224522FF
:1048DC00EE012808140A321ECB1B5B1C381C011C71
:1048EC00CE1B01C63435F4F5F6F7313332976694A6
:1048FC0090919293404D3639D70A8A0A540A1B0A72
:08490C00AE09C709E009F90931
:00000001FF
