:100000000C942C040C9473040C9473040C947304DB
:100010000C9473040C9473040C9473040C94730484
:100020000C9473040C9473040C949C1E0C946F1F1A
:100030000C94B1150C9473040C9473040C94730415
:100040000C9473040C9473040C9473040C94730454
:100050000C9473040C9412160C9473040C94730493
:100060000C9473040C9473040C9473040C94730434
:100070000C9473040C9473040C9473040C94730424
:100080000C9473040C9473040C9473040C94730414
:100090000C9473040C9473040C9473040C94730404
:1000A0000C9473040C9473040C94730429002B00B7
:1000B00014001A000800150017001C0018000C009E
:1000C0001200130031002A00AF003961040016004D
:1000D000070009000A000B000D000E000F0034009D
:1000E00028000251E1001D001B0006001900050058
:1000F000110010003600370038620151E3002C0077
:10010000E20000000000000000000000010000709C
:100110001E001F00200021002200230024002500D3
:100120002600270001004C00010001000100010031
:1001300001000100010001005000520051004F0079
:1001400001000100010001000100010001000100A7
:10015000010001002F00300001000100010001003A
:10016000010000000000000000000000010001008C
:1001700001000100010001000100010001002D004B
:100180002E002F00300001000100010001000100DD
:100190000100010001000100010001000100010057
:1001A0000100010001000100010001000100010047
:1001B0000100010001000100010001000100010037
:1001C000010000000000000000000000010001002C
:1001D0000100010001000100010001000100010017
:1001E0000100010001000100010001000100010007
:1001F00001000100010001000100010001000100F7
:1002000001000100010001000100010001000100E6
:1002100001000100010001000100010001000100D6
:1002200001000000000000000000000001000100CB
:1002300001000100010001000100010001000100B6
:1002400001000100010001000100010001000100A6
:100250000100010001000100010001000100010096
:100260000100010001000100010001000100010086
:100270000100010001000100010001000100010076
:10028000010000000000000000000000010001006B
:100290000100010001000100010001000100010056
:1002A0000100010001000100010001000100010046
:1002B0000100010001000100010001000100010036
:1002C0000100010001000100010001000100010026
:1002D0000100010001000100010001000100010016
:1002E000010000000000000000000000010001000B
:1002F00001000100010001000100010001000100F6
:1003000001000100010001000100010001000100E5
:1003100001000100010001000100010001000100D5
:1003200001000100010001000100010001000100C5
:1003300001000100010001000100010001000100B5
:1003400001000000000000000000000001000100AA
:100350000100010001000100010001000100010095
:100360000100010001000100010001000100010085
:100370000100010001000100010001000100010075
:100380000100010001000100010001000100010065
:100390000100010001000100010001000100010055
:1003A000010000000000000000000000010001004A
:1003B0000100010001000100010001000100010035
:1003C0000100010001000100010001000100010025
:1003D0000100010001000100010001000100010015
:1003E0000100010001000100010001000100010005
:1003F00001000100010001000100010001000100F5
:1004000001000000000000000000000001000100E9
:1004100001000100010001000100010001000100D4
:1004200001000100010001000100010001000100C4
:1004300001000100010001000100010001000100B4
:1004400001000100010001000100010001000100A4
:100450000100010001000100010001000100010094
:100460000100000000000000000000000100010089
:100470000100010001000100010001000100010074
:100480000100010001000100010001000100010064
:100490000100010001000100010001000100010054
:1004A0000100010001000100010001000100010044
:1004B0000100010001000100010001000100010034
:1004C0000100000000000000000000000100010029
:1004D0000100010001000100010001000100010014
:1004E0000100010001000100010001000100010004
:1004F00001000100010001000100010001000100F4
:1005000001000100010001000100010001000100E3
:1005100001000100010001000100010001000100D3
:1005200001000000000000000000000001000100C8
:1005300001000100010001000100010001000100B3
:1005400001000100010001000100010001000100A3
:100550000100010001000100010001000100010093
:100560000100010001000100010001000100010083
:100570000100010001000100010001000100010073
:100580000100000000000000000000000100010068
:100590000100010001000100010001000100010053
:1005A0000100010001000100010001000100010043
:1005B0000100010001000100010001000100010033
:1005C0000100010001000100010001000100010023
:1005D0000100010001000100010001000100010013
:1005E0000100000000000000000000000100010008
:1005F00001000100010001000100010001000100F3
:1006000001000100010001000100010001000100E2
:1006100001000100010001000100010001000100D2
:1006200001000100010001000100010001000100C2
:1006300001000100010001000100010001000100B2
:1006400001000000000000000000000001000100A7
:100650000100010001000100010001000100010092
:100660000100010001000100010001000100010082
:100670000100010001000100010001000100010072
:100680000100010001000100010001000100010062
:100690000100010001000100010001000100010052
:1006A00001000000000000000000000012036B00C9
:1006B0006500790062006F00610072006400000054
:1006C000160371006D006B006200750069006C001C
:1006D00064006500720000000403090409026D0053
:1006E000040100A0FA09040000010301010009212E
:1006F000110100012240000705810308000A0904D6
:1007000001000103010200092111010001224D0035
:100710000705820308000A09040200010300000023
:100720000921110100012236000705830308000A90
:100730000904030001030000000921110100012246
:100740003900070584032000011201100100000098
:1007500008EDFE606001000102000105010906A12B
:1007600001050719E029E7150025019508750181A4
:100770000205081901290595057501910295017574
:100780000391010507190029F71500250195F87552
:10079000018102C005010980A10185021601002620
:1007A00003001A81002A8300751095018100C0059D
:1007B0000C0901A1018503160100269C021A010003
:1007C0002A9C02751095018100C005010902A10152
:1007D0000901A10005091901290515002501950543
:1007E0007501810295017503810105010930093107
:1007F0001581257F95027508810609381581257FA9
:10080000950175088106050C0A38021581257F952A
:100810000175088106C0C005010906A10105071977
:10082000E029E715002501950875018102950175FC
:1008300008810105081901290595057501910295A1
:1008400001750391010507190029FF150026FF0016
:10085000950675088100C00011241FBECFEFDAE0B5
:10086000DEBFCDBF04B603FE27C080912802909161
:100870002902A0912A02B0912B028730904BA74009
:10088000B04BD1F4109228021092290210922A0241
:1008900010922B0214BE84B7877F84BF0FB6F894E2
:1008A000A89580916000886180936000109260003C
:1008B0000FBEE0E0F8E3099511E0A0E0B1E0E8EB5D
:1008C000F5E402C005900D92A633B107D9F722E0F6
:1008D000A6E3B1E001C01D92A832B207E1F70E9481
:1008E000F21B0C94AE220C94000090E080E008957E
:1008F0000895089581E00895089581E008950C9485
:100900007A040E94040E2FEF84E39CE02150804083
:100910009040E1F700C000000C943516EF92FF9272
:100920000F931F93CF93DF938C01FC01E080F18044
:1009300080916401811140C082818823C1F1C70187
:100940000E948813C82F682FC7010E943213B70175
:100950008C2F0E94C605EC01B8010E947F048823F9
:1009600009F44BC0B801CE010E94D007882309F4D6
:1009700044C0C531F0E7DF0720F5C23080E7D80773
:1009800008F04DC0C115E0E7DE0791F1C130D04756
:10099000E1F181E08093380180933901C801DF9152
:1009A000CF911F910F91FF90EF900C947D04C701A0
:1009B0000E945F13C82FCBCFC7010E948813B701D5
:1009C000C8CFCC3380E7D80709F49BC0CD33D047DC
:1009D00001F7F8018281882309F4BAC01092390125
:1009E0000E94E115909337018093360180E296C012
:1009F000F801828181110E94810480E0DF91CF9112
:100A00001F910F91FF90EF900895F8018281882344
:100A1000A1F38091E80181608093E801EECFF801B5
:100A20008281882309F4BACF0E944315811102C044
:100A30000E9429150E94601590E090931A028093FD
:100A40001902FE01E350F047809119028160E23102
:100A5000F10538F4E055FD4D0C945E2280911902A9
:100A6000826080931902809119020E9464150E948D
:100A7000040EC3CF809119028460F3CF80911902D4
:100A80008860EFCF809119028061EBCF80911902CD
:100A90008062E7CF809119028064E3CF80911902D0
:100AA0008068DFCF809119028C60DBCF80911902C2
:100AB0008E7FD7CF809119028D7FD3CF809119027D
:100AC0008B7FCFCF80911902877FCBCF8091190286
:100AD0008F7EC7CF809119028F7DC3CF809119027D
:100AE0008F7BBFCF809119028F77BBCF8091190286
:100AF000837FB7CF90911902892F97FB87F9805890
:100B0000B0CFF8018281882361F0109238010E94F1
:100B1000E115909337018093360182E00E94690BC2
:100B20006CCF8091380181110FC080913601909176
:100B300037010E94ED15883C910530F486E20E9451
:100B40003E0A86E20E941A0B82E00E94700B55CF8B
:100B50008091390181110FC0809136019091370148
:100B60000E94ED15883C910530F487E20E943E0A10
:100B700087E20E941A0B80E2E8CF0C941F080C94C5
:100B800021080C947C040C94C1050895E72FF0E033
:100B900096E0899FE00DF11D112483E0EE0FFF1F09
:100BA0008A95E1F7E60FF11DEE0FFF1FE455FF4FA9
:100BB000859194910895FC01EE0FFF1FE455F94FC4
:100BC0008591949108950E94C6050E9454079C0146
:100BD000811540E4940708F097C0211580E3380799
:100BE00008F0FAC0203E310508F074C0203C310501
:100BF00008F0E5C0283A310588F4253A310508F0B7
:100C0000E2C02130310509F477C0C9010497813A67
:100C1000910508F471C030E020E06EC0C901885A27
:100C200091094597C0F7283A310509F4FEC0293AE1
:100C3000310509F4FDC02A3A310509F4FCC02B3A0C
:100C4000310509F4FBC02C3A310509F4FAC02B3BFD
:100C5000310509F4F9C02C3B310509F4F8C02D3AEF
:100C6000310509F4F7C0203B310509F4F6C02E3AEE
:100C7000310509F4F5C02F3A310509F4F4C0213BE0
:100C8000310509F4F3C0223B310509F4F2C0233BDE
:100C9000310509F4F1C0243B310509F4F0C0253BCE
:100CA000310509F4EFC0263B310509F4EEC0273BBE
:100CB000310509F4EDC0283B310509F4ECC0293BAE
:100CC000310509F4EBC02A3B310509F4EAC020E004
:100CD00034E412C0211590E2390780F42F3F31052A
:100CE00009F050F4283E310538F0C901805F9109C0
:100CF0003065409708F08FCFC9010895C9019F70F2
:100D00000E94DB059C01F8CF8115944508F041C095
:100D1000211583E5380708F06AC0211592E53907E7
:100D200038F5211541E5340708F05CC0211580E550
:100D3000380708F454C0C90134E0969587953A9570
:100D4000E1F78370422F46954695437090E2499FA4
:100D5000A0011124582B822F837021E030E002C0C3
:100D6000220F331F8A95E2F7242B352B3C68C4CF22
:100D7000C9018370992741E050E002C0440F551F1C
:100D80008A95E2F72695269580E2289F9001112406
:100D9000EBCF211596E5390748F4922F88272115C6
:100DA0003545C8F59C01246F306AA6CFC90190561D
:100DB0003F708115904108F02ECF30629DCFC90160
:100DC000805C91099DCF253A310549F1263A3105DC
:100DD00049F522E830E490CF3327306C8DCF3F7057
:100DE000306A8ACF322F2227216F306A85CFC9011E
:100DF0008370992741E050E002C0440F551F8A9547
:100E0000E2F72695269580E2289F90011124242B55
:100E1000352B3A6871CF88279F719C01CECF21E88E
:100E200030E46ACF23E830E467CF22EE34E464CFC5
:100E300029EE34E461CF2AEE34E45ECF25EB34E4CE
:100E40005BCF26EB34E458CF23EB34E455CF24EBCF
:100E500034E452CF27EB34E44FCF2CEC34E44CCFC6
:100E60002DEC34E449CF23E835E446CF2AE835E4D5
:100E700043CF22E935E440CF24E935E43DCF21E2F8
:100E800036E43ACF23E236E437CF24E236E434CFF7
:100E900025E236E431CF26E236E42ECF27E236E4EF
:100EA0002BCF2AE236E428CF803E910581F1C8F4A9
:100EB0008133910509F462C048F48932910509F43F
:100EC00056C08A32910509F460C0089589339105AE
:100ED000B9F082389105A1F08533910509F440C03D
:100EE0000895863E910561F138F4823E9105B1F096
:100EF000833E9105E1F00895873E910551F10895F3
:100F0000209119022370D9F080EE90E0089520918D
:100F1000190220FF14C089E390E00895209119027E
:100F200022FF0DC024FD09C083EE90E008952091BA
:100F3000190222FD31C024FF02C090E080E0089534
:100F40002091190223FFFBCF24FDF7CF87EE90E01D
:100F500008952091190223FFEECF86EE90E00895C8
:100F60002091190225FFEBCF89E290E008952091AE
:100F7000190225FFE4CF85E390E00895209119023E
:100F800026FFDDCF8AE290E008952091190226FF26
:100F9000D6CF81E390E0089582EE90E00895089521
:100FA0000F931F93CF938C01FB018281811106C0A7
:100FB000C1E08C2FCF911F910F910895C0914701EF
:100FC000C11125C00531104799F70E94CF0781E074
:100FD000809347010E94E11590934601809345015B
:100FE00010923A0110923C0110923B0110923E0186
:100FF00010923D011092400110923F011092420167
:10100000109241011092440110924301D2CF80917D
:101010004501909146010E94ED15883C910540F6EE
:1010200080913A01E82FF0E0EE0FFF1FE55CFE4FE4
:10103000118300838F5F80933A01C0E0BACF0C9494
:1010400078040C94790485B7806885BF85B780687B
:1010500085BFABE1B1E061E070E08D91E82FE295F2
:10106000EF70F0E041A18F709B0101C0220F8A95C3
:10107000EAF7922F9095942391A382A1822B82A3C9
:1010800081E0A132B80749F7A3E1B1E061E070E087
:101090008D91E82FE295EF70F0E041A18F709B01F8
:1010A00001C0220F8A95EAF7922F9095942391A37D
:1010B00082A1822B82A381E0AB31B80749F7EEE42D
:1010C000F1E0A8E4B1E084E591E011921D928E1761
:1010D0009F07D9F70C94BD054F925F926F927F9254
:1010E0008F929F92AF92BF92CF92DF92EF92FF9238
:1010F0000F931F93CF93DF9308E411E08BE1C82E89
:1011000081E0D82E2801EE24E394F12CBB24B39483
:10111000D2019D902D011E92E60189916E01E82F6A
:10112000E295EF70F0E091A18F70970101C0220F5E
:101130008A95EAF7892F822B81A382A1822E80943F
:10114000882182A3D0EADA95F1F763E171E090E0BB
:1011500080E0EB01A990BE014A2D42954F7050E00E
:10116000EA0168A07C905A2D5F70E70102C0CC0FA5
:10117000DD1F5A95E2F7AE01462109F04FC04E2D12
:10118000082E01C0440F0A94EAF747294C930196B0
:1011900088309105F1F681A1882181A382A1282BB5
:1011A00022A38C91981641F0B09254010E94E1154F
:1011B0009093560180935501DEE44D16D1E05D0613
:1011C00009F0A6CF809154018823A1F080915501A8
:1011D000909156010E94ED15069760F0EEE4F1E063
:1011E000D8018D918D018193B1E00E341B07C1F7B9
:1011F000109254010E94BF0581E0DF91CF911F91B1
:101200000F91FF90EF90DF90CF90BF90AF909F90A5
:101210008F907F906F905F904F90089540E0B5CF92
:10122000E82FF0E0E25BFE4F8081089508959093EF
:101230005C0180935B010895E0915B01F0915C019A
:10124000309721F00190F081E02D099480E008951D
:10125000E0915B01F0915C01309721F00280F38115
:10126000E02D09940895E0915B01F0915C013097C5
:1012700021F00480F581E02D099408952091590111
:1012800030915A012817390771F090935A018093D1
:101290005901E0915B01F0915C01309721F00680EB
:1012A000F781E02D0994089520915701309158015C
:1012B0002817390771F09093580180935701E091F6
:1012C0005B01F0915C01309721F00084F185E02D05
:1012D0000994089508950C946A090E94D8150E94F3
:1012E00023080C949A16BF92CF92DF92EF92FF924E
:1012F0000F931F93CF93DF9300D000D00F92CDB701
:10130000DEB70E946C088EE5C82E81E0D82E10E072
:1013100000E0E02E802F0E941009B82EF601F19017
:101320006F01F81609F45BC08091E80181FD0E940D
:10133000160930E020E0FB244F2D50E0922FBA0137
:10134000022E02C0759567950A94E2F760FF41C0CE
:101350002983EA8221E030E0790102C0EE0CFF1C13
:101360009A95E2F72B2D30E02E213F2181E0232BAF
:1013700009F480E08B830E94E1158160782F9D83C2
:101380008C8349815A816B818D810E94150AF801F5
:10139000E25AFE4F80818E2580830E9447190E9469
:1013A0001C0990915D01891789F10E941C098093A5
:1013B0005D010F900F900F900F900F90DF91CF91E4
:1013C0001F910F91FF90EF90DF90CF90BF900C9402
:1013D000C3052F5F3F4F2830310509F0AFCF0F5FB6
:1013E0001F4F0630110509F094CF8FEF89838A8350
:1013F0001B820E94E1158160782F9D838C83498137
:101400005A816B818D810E94150AC7CF0F900F9072
:101410000F900F900F90DF91CF911F910F91FF9040
:10142000EF90DF90CF90BF900895CF93DF93CDB72B
:10143000DEB72B970FB6F894DEBF0FBECDBF4F833C
:10144000588769877A878B871E8285E0FE013796E9
:10145000DE01119601900D928A95E1F749815A813A
:101460006B817C818D819E812B960FB6F894DEBFB7
:101470000FBECDBFDF91CF910C948C10882309F45F
:10148000D8C0823871F40E941C0981FDD2C089E362
:101490000E9430140E94FA1489E30E946D140C9487
:1014A000FA14833859F40E941C0980FDC2C083E5F8
:1014B0000E9430140E94FA1483E5EFCF843859F467
:1014C0000E941C0982FDB5C087E40E9430140E946E
:1014D000FA1487E4E2CF9CEF980F913A18F40E9437
:1014E0003014DDCF90E2980F983050F4877091E07F
:1014F00001C0990F8A95EAF7892F0E94B114CFCFC6
:101500009BE5980F933070F4853A31F0863A39F0C4
:1015100083E890E00C943E0981E890E0FBCF82E8FC
:1015200090E0F8CF98E5980F953108F082C0883A9E
:1015300009F440C0893A09F440C08A3A09F440C02D
:101540008B3A09F440C08C3A09F440C08B3B09F453
:1015500040C08C3B09F440C08D3A09F440C0803B48
:1015600009F440C08E3A09F440C08F3A09F440C0F3
:10157000813B09F440C0823B09F440C0833B09F43D
:1015800040C0843B09F440C0853B09F440C0863B21
:1015900009F440C0873B09F440C0883B09F440C0CF
:1015A000893B09F440C08A3B09F440C090E080E0E8
:1015B0000C94540982EE90E0FBCF89EE90E0F8CFD6
:1015C0008AEE90E0F5CF85EB90E0F2CF86EB90E0ED
:1015D000EFCF83EB90E0ECCF84EB90E0E9CF87EBAB
:1015E00090E0E6CF8CEC90E0E3CF8DEC90E0E0CFA4
:1015F00083E891E0DDCF8AE891E0DACF82E991E0FB
:10160000D7CF84E991E0D4CF81E292E0D1CF83E2D9
:1016100092E0CECF84E292E0CBCF85E292E0C8CFD9
:1016200086E292E0C5CF87E292E0C2CF8AE292E002
:10163000BFCF0895882309F44BC0823871F40E940B
:101640001C0981FF45C089E30E9430140E94FA14EE
:1016500089E30E946D140C94FA14833859F40E94A3
:101660001C0980FF35C083E50E9430140E94FA14E3
:1016700083E5EFCF843859F40E941C0982FF28C00B
:1016800087E40E9430140E94FA1487E4E2CF9CEFB2
:10169000980F913AF0F290E2980F983050F48770DA
:1016A00091E001C0990F8A95EAF7892F0E94B7143B
:1016B000D2CF9BE5980F933020F490E080E00C941B
:1016C0003E09885A853120F490E080E00C9454095A
:1016D0000895882321F00E94B1140C94FA140895FF
:1016E000882321F00E94B7140C94FA1408958F9265
:1016F0009F92AF92BF92DF92EF92FF920F931F9350
:10170000CF93DF9300D000D00F92CDB7DEB77C012E
:101710006D837983FC01058102950F70128111118F
:101720000E94D0140E942914D82E882371F011230E
:10173000A1F08D81805E883080F082E00E941314D9
:101740000E94291491E0D82ED926E981E295EF7004
:10175000F0E0EE53FD4D0C945E22D12CF6CF0981C2
:101760000F70F981F07F11F00295007F1123B1F025
:10177000002361F08D81805E883018F02D81211169
:1017800009C0802F0E94B1140E94FA148D810E941A
:101790003E0A15C0802F0E94C214F6CF8D810E9490
:1017A0001A0B002361F08D81805E883018F03D8136
:1017B000311129C0802F0E94B7140E94FA14DD2035
:1017C00009F4D3C10E94061480FDCFC1F701128233
:1017D0000E9400140E944A12C7010E94C60D0E9476
:1017E00000140F900F900F900F900F90DF91CF91FA
:1017F0001F910F91FF90EF90DF90BF90AF909F905F
:101800008F900C946C12802F0E94C814D6CF4981FF
:101810004F70B42E5981507F503219F0B29480EF3E
:10182000B8228D81882369F0813029F1112369F173
:10183000002359F0F701858180FFA8CF8F70858341
:1018400004C0112361F0011104C08B2D0E94690BAB
:10185000B6CF8B2D0130D1F70E94E414B0CF011127
:1018600006C00E94E7148B2D0E94700BA8CF013098
:1018700009F4A5CFF6CF112321F0063008F09FCF51
:10188000E4CF053008F09BCFEECF002361F38D81CC
:101890000E941A0B94CF898186958695837069F092
:1018A000813009F08CCF8D8199819370111102C024
:1018B00090E080E00E94540982CF8D8199819370DD
:1018C000111102C090E080E00E943E0978CF8D8126
:1018D000112329F00E9455180E943C1970CF0E94D4
:1018E000BD18FACF8981837009F05FC0111167CFED
:1018F0002D81229526952770220F220F8D818F70C2
:1019000090E0B0E0A0E04C015D01022E04C0880C24
:10191000991CAA1CBB1C0A94D2F7FD8160E070E000
:10192000CB01F4FF0FC06FE070E080E090E004C0F6
:10193000660F771F881F991F2A95D2F760957095BB
:101940008095909529812695269523702D832230A8
:10195000B1F0233019F19B01AC01282939294A291A
:101960005B2929833A834B835C833D8169817A813A
:101970008B819C813130B1F00E94D71120CF9B0127
:10198000AC01282939294A295B2929833A834B83C9
:101990005C83CA01B9010E94011211CF0E94D711C4
:1019A000C501B4010E94AD110ACF8695112311F033
:1019B00089818170882309F402CF2D812295269593
:1019C0002770220F220F8D818F7090E0B0E0A0E091
:1019D0004C015D01022E04C0880C991CAA1CBB1C82
:1019E0000A94D2F73D8160E070E0CB0134FF0FC074
:1019F0006FE070E080E090E004C0660F771F881F02
:101A0000991F2A95D2F76095709580959095498198
:101A10004695469543704D834230B1F0433019F1FD
:101A20009B01AC01282939294A295B2929833A835A
:101A30004B835C833D8169817A818B819C813130CC
:101A4000B1F00E94DD12BBCE9B01AC0128293929DF
:101A50004A295B2929833A834B835C83CA01B901F4
:101A60000E940713ACCE0E94DD12C501B4010E9492
:101A7000B312A5CE3D81323F09F447C080F4303F18
:101A800079F1313FD9F1832F805E8031D0F011237D
:101A900009F456C001117ACE89818F7133C04D810E
:101AA000433FD1F1443F99F7112309F43FC08981A5
:101AB0008F7189830E944A1263E089810E940A140F
:101AC0007ECE5D815F705D8389818F71112321F0EE
:101AD0000E944A128D81BACE0E946C128D81C4CEB2
:101AE000112341F0053008F06ACE89818F710E9480
:101AF000911265CE063008F062CEF7CF89818F71E2
:101B0000112339F00E944A125ACE89818F71112314
:101B1000C9F30E946C1253CE112329F089818F7171
:101B20000E9435124CCE0E942B1249CE81E00E94B9
:101B30001314023008F443CE82E00E9413143FCE07
:101B40000111A5CE89818F71E4CF49814F706D81DC
:101B5000C7010E9475040E94261131CE49814F7041
:101B60006D81C7010E94C5052ACE0F900F900F907E
:101B70000F900F90DF91CF911F910F91FF90EF90F9
:101B8000DF90BF90AF909F908F9008950F931F9319
:101B9000CF93DF93EC018B819C81892B29F0888185
:101BA000998189238F3F29F4DF91CF911F910F9164
:101BB0000895CE010E948E048823B1F36881798153
:101BC0008A810E94D6138C010E9431130E94A211B7
:101BD000B801CE01DF91CF911F910F910C94770B3B
:101BE0000E94D0140E94E1140E94A3140E94FA14CF
:101BF0000E942D1A0E943C1990E080E00E943E094C
:101C000090E080E00C9454090E94BF140C94F00DF5
:101C10000E94CA13282F892F82958F70903C80F4E0
:101C20008A30B0F4843020F4823090F480E008955B
:101C30008630E1F781E0203E88F0213FB9F70EC001
:101C40008C3011F08F3091F793FB882780F908953D
:101C500081E0203F39F018F4203E40F70895243FFA
:101C600029F7FCCF0895CF93DF9300D000D00F92D7
:101C7000CDB7DEB70F900F900F900F900F90DF91C0
:101C8000CF910895CF93DF9300D000D000D0CDB78F
:101C9000DEB726960FB6F894DEBF0FBECDBFDF913C
:101CA000CF9108951F93CF93DF93E091650116E0E4
:101CB000809166018E1304C0DF91CF911F9108952A
:101CC000CE2FD0E01E9FF0011124E959FE4F408134
:101CD000518162817381848195810E94420EFE014F
:101CE0003196E770E5CF409197015091980160914E
:101CF000990170919A0180919B0190919C010C94A3
:101D0000420E1F93CF93DF9380919C01807FC1F49B
:101D1000809199018823A1F080916501C0916601AD
:101D2000609197017091980140919A0150919B01A7
:101D3000D62FD723DA01A095B09516E0C81304C0BA
:101D4000DF91CF911F91089590E04115510511F059
:101D5000DF3F31F401968770F1CF2A0F3B1F17C088
:101D6000189FF001199FF00D1124E959FE4F2181B0
:101D70002713F0CF20812613EDCF22812111EACF46
:101D8000238134812417350740F3241B350B283C6D
:101D9000310500F720919C012F70206120939C0158
:101DA00026E0289FF001299FF00D1124E459FE4FF1
:101DB00080818F708061808387E991E00E94C60DE9
:101DC000DF91CF911F910C94520E9F92AF92BF92D0
:101DD000CF92DF92EF92FF920F931F93CF93DF93F7
:101DE000CDB7DEB72B970FB6F894DEBF0FBECDBFD1
:101DF0008C0185E0F801DE01179601900D928A951D
:101E0000E1F7D8014C9111965C9111971296EC90E4
:101E1000129780919A0190919B01009709F46BC1F0
:101E20002091970130919801632F62236F3F09F44D
:101E300062C11396CD90DC9090909901992009F49D
:101E4000F8C0C816D90608F43FC0F601E81BF90B24
:101E5000CF01FF24F394883C910508F0F12C87E929
:101E6000A82E81E0B82E80919C01982F907FFF20B2
:101E700009F4B7C0911180C0FE2C35132AC0241379
:101E800028C0E11026C08F70806180939C010E9461
:101E9000730EC5010E94C60D80919C01D801159654
:101EA0008C938F2D2B960FB6F894DEBF0FBECDBF4F
:101EB000DF91CF911F910F91FF90EF90DF90CF9026
:101EC000BF90AF909F900895809590958C0D9D1D2B
:101ED000C0CFCD2829F0842F85238F3F09F019C169
:101EE00080E0B82FB170DB2EE09165012091660192
:101EF00036E080FD1CC0EE20A1F280919C01816043
:101F000080939C01F12CCDCF8E2F90E03E9FF0016D
:101F10001124E959FE4F6181651306C06081641385
:101F200003C062816E11E7CFFC013196E770E213C6
:101F3000EBCF4F8358878F8198850E94CA13292F32
:101F400022952F70903260F0225F2F70223078F44B
:101F50009F7051F0F8019581907F31F4D12C0AC027
:101F60009F7011F08823D1F3805E8830B8F3C801E8
:101F70000E94C60DFD2C95CF351306C0241304C056
:101F8000D801EE2009F47BC04F8358878F81988554
:101F90000E94080E882309F4B8C0EE2009F4B5C0E9
:101FA00080919C01803270F02091970130919801CE
:101FB0003A8329831B82DD82CC828E83CE010196F7
:101FC0000E94C60D86E0F801A7E9B1E001900D92EC
:101FD0008A95E1F70E94810E0E94730EFF24F3940C
:101FE00060CF911113C07C2DDB86CA866E2D8B8548
:101FF0000E94330E87E991E00E94C60D86E0F5014C
:1020000011928A95E9F70E94730E4BCF3513BCCF1E
:102010002413BACFE110B8CFD80115968C93C8011C
:102020000E94C60D86E0F50111928A95E9F7F92C18
:1020300038CFC816D90688F1B601681B790BCB01D9
:10204000F12C883C910508F047C0FE2CEE2009F4E5
:102050005CC0351330C024132EC080919C0180FDDC
:1020600021C0982F907FF1F0D80115968C93159789
:10207000903F39F0982F907F905F8F70892B159645
:102080008C93C8010E94C60D86E0F801A7E9B1E073
:1020900001900D928A95E1F7B6CF809590958C0DC1
:1020A0009D1DCECF86E0F801A7E9B1E001900D9229
:1020B0008A95E1F7F6CE4F8358878F8198850E94E5
:1020C000080E81117FCF80919C01816080939C01DB
:1020D000C8010E94C60DE5CE7C2DDB86CA866E2D1A
:1020E0008B850E94330E86E0E7E9F1E0DF011D9267
:1020F0008A95E9F788CFEE2041F04F8358878F818A
:1021000098850E94080E81115DCFC8010E94C60DFE
:1021100065CF81E08E25E5CE1F93CF93DF93CDB7BA
:10212000DEB72C970FB6F894DEBF0FBECDBF4F833E
:10213000588769877A878B879C87CE0107960E948C
:10214000E50E882369F08A859B85892B39F04F81BC
:102150005885842F85238F3F09F071C016E05FC03A
:1021600086E0FE013796DE01119601900D928A9568
:10217000E1F78A859B85892B89F388859F8189234F
:102180008F3F61F32091660130E0C90101968770AD
:102190009927409165014817190671F40E94040EB1
:1021A000109266011092650186E0E7E9F1E0DF0137
:1021B0001D928A95E9F7D2CF96E0929FD001939F26
:1021C000B00D1124A959BE4FFE01319601900D9218
:1021D0009A95E1F7809366010E94520EBFCF819FCE
:1021E000C001112489599E4F0E94E50E8823E9F011
:1021F000E09165011E9FF0011124E959FE4F4081D5
:10220000518162817381848195810E94420E809107
:10221000650190E001968770992780936501809110
:102220006501909166018913DACF2C960FB6F89468
:10223000DEBF0FBECDBFDF91CF911F91089569859D
:102240007A858B859C850E94420E88CFEF92FF9203
:102250000F931F93CF93DF938C01892B89F0F12C7F
:10226000EE24E394E8012196F8018491843709F47F
:1022700057C0A0F4823009F43EC048F48130D1F058
:10228000DF91CF911F910F91FF90EF9008959CEFF8
:10229000980F9037A8F70E943E0A0AC0853709F4C4
:1022A0004CC09CE7980F903758F78F770E941A0B15
:1022B0008E0116C00E5F1F4FFE01849190E2980FB1
:1022C000983060F48770FE2D01C0FF0F8A95EAF701
:1022D0008F2F0E94D3140E94FA1402C00E943E0A5B
:1022E0008F2D815008F4BECFEFE9FFE03197F1F771
:1022F00000C00000F6CF0E5F1F4FFE01849190E2F8
:10230000980F983050F48770FE2D01C0FF0F8A950A
:10231000EAF78F2F0E94D914DECF0E941A0BE0CF6C
:102320000E5F1F4FFE01C491C150D0F28FE99FE0B4
:102330000197F1F700C00000F7CF0E5F1F4FFE01BD
:10234000F490CECF08956093BF017093C001809345
:10235000C1019093C2010C94F00DCF93DF9300D094
:1023600000D0CDB7DEB769837A838B839C8380915D
:10237000BF019091C001A091C101B091C20129811A
:102380003A814B815C81822B932BA42BB52B8093BC
:10239000BF019093C001A093C101B093C2010F90FF
:1023A0000F900F900F90DF91CF910C94F00DCF9381
:1023B000DF9300D000D0CDB7DEB769837A838B83FB
:1023C0009C838091BF019091C001A091C101B09107
:1023D000C20129813A814B815C8182239323A4230A
:1023E000B5238093BF019093C001A093C101B09326
:1023F000C2010F900F900F900F90DF91CF910C942E
:10240000F00DCF93DF9300D000D0CDB7DEB7698356
:102410007A838B839C838091BF019091C001A091AE
:10242000C101B091C20129813A814B815C8182272F
:102430009327A427B5278093BF019093C001A09351
:10244000C101B093C2010F900F900F900F90DF91D8
:10245000CF910C94F00D1092BB011092BC01109220
:10246000BD011092BE010C94F00D41E050E060E01F
:1024700070E004C0440F551F661F771F8A95D2F77E
:102480004093BB015093BC016093BD017093BE01AA
:102490000C94F00D282F81E090E0A0E0B0E004C0A3
:1024A000880F991FAA1FBB1F2A95D2F74091BB0125
:1024B0005091BC016091BD017091BE01842B952BA0
:1024C000A62BB72B8093BB019093BC01A093BD01B9
:1024D000B093BE010C94F00D41E050E060E070E07C
:1024E00004C0440F551F661F771F8A95D2F7409589
:1024F0005095609570958091BB019091BC01A09121
:10250000BD01B091BE0184239523A623B7238093F8
:10251000BB019093BC01A093BD01B093BE010C948C
:10252000F00D282F81E090E0A0E0B0E004C0880F1B
:10253000991FAA1FBB1F2A95D2F74091BB0150914A
:10254000BC016091BD017091BE0184279527A6272B
:10255000B7278093BB019093BC01A093BD01B093BA
:10256000BE010C94F00DCF93DF9300D000D0CDB717
:10257000DEB769837A838B839C838091BB019091C2
:10258000BC01A091BD01B091BE0129813A814B816E
:102590005C81822B932BA42BB52B8093BB01909352
:1025A000BC01A093BD01B093BE010F900F900F909E
:1025B0000F90DF91CF910C94F00DCF93DF9300D06B
:1025C00000D0CDB7DEB769837A838B839C838091FB
:1025D000BB019091BC01A091BD01B091BE012981C8
:1025E0003A814B815C8182239323A423B52380937A
:1025F000BB019093BC01A093BD01B093BE010F90AD
:102600000F900F900F90DF91CF910C94F00DCF931E
:10261000DF9300D000D0CDB7DEB769837A838B8398
:102620009C838091BB019091BC01A091BD01B091B0
:10263000BE0129813A814B815C8182279327A4279F
:10264000B5278093BB019093BC01A093BD01B093CB
:10265000BE010F900F900F900F90DF91CF910C94CF
:10266000F00D0895990F990F990FE92FE80F8770D2
:1026700041E001C0440F8A95EAF7E695E695E695B4
:1026800085E0E89FF0011124E356FE4F30E020E0A2
:1026900070E05191DF011197CB01022E02C0969597
:1026A00087950A94E2F78170819585278423852791
:1026B0008C932F5F3F4F2530310559F70895E92F4F
:1026C000EE0FEE0FEE0FE80F982F9770E695E69558
:1026D000E69585E0E89FF0011124E356FE4F50E0B7
:1026E00040E080E0219130E0092E02C03695279528
:1026F0000A94E2F721703327042E01C0220F0A94B6
:10270000EAF7822B4F5F5F4F4530510559F7089527
:10271000BF92CF92DF92EF92FF920F931F93CF93CE
:10272000DF938C01C090BB01D090BC01E090BD0153
:10273000F090BE018091BF019091C001A091C101B4
:10274000B091C201C82AD92AEA2AFB2ACFE1D0E0F7
:10275000BC2ED701C6010C2E04C0B695A79597953F
:1027600087950A94D2F780FD0EC0219788F7B12C87
:102770008B2DDF91CF911F910F91FF90EF90DF9004
:10278000CF90BF900895B8018C2F0E94E305019768
:1027900061F3EECFCF93DF93D82FC92F0E94881318
:1027A0006D2F7C2FDF91CF910C94E3051F93CF9376
:1027B000DF93162FD72F90916401992339F0862F3C
:1027C000972FDF91CF911F910C94CA13882391F01A
:1027D000862F972F0E948813C82F682F812F9D2F37
:1027E0000E943213612F7D2F8C2FDF91CF911F918B
:1027F0000C94E305862F972F0E945F13C82FF2CF0A
:102800008091C30185958595859508958091C30133
:102810008770089598E0899F90011124622B60933E
:10282000C3010C944A129091C3018095892380932F
:10283000C301282F277061F4282F082E000C330BBA
:102840009217130629F08595859585950C946C1241
:1028500008959091C301977081E009F480E0089594
:10286000909112019923E1F09091190297FF18C0FD
:10287000E82FE695E695E695EF3139F120910001D4
:1028800030910101E20FF32FF11D877021E030E05C
:1028900001C0220F8A95EAF78181822B81830895F6
:1028A0002091000130910101F90132969FEF40E043
:1028B0005191851751F09F3F19F4511101C0942F88
:1028C0004F5F4E31A9F79F3F09F40895290F311D3D
:1028D00097FD3A95F9018283089590911201992309
:1028E00001F19091190297FF1CC0E82FE695E6953B
:1028F000E695EF3139F12091000130910101E20FAD
:10290000F32FF11D877021E030E0A90102C0440FD0
:10291000551F8A95E2F7CA018095918189238183A9
:1029200008952091000130910101F9013296205E55
:102930003F4F9191891303C0DF0111971C92E21759
:10294000F307B9F7089581E090E0E0910001F0917C
:102950000101E80FF91F1082019680329105A9F755
:1029600008959091E701982B9093E7010895982F8F
:1029700090958091E70189238093E7010895109253
:10298000E70108959091E601982B9093E601089550
:10299000982F90958091E60189238093E601089510
:1029A0001092E60108959091E501982B9093E5012E
:1029B0000895982F90958091E50189238093E501F2
:1029C00008951092E50108958093C401089510922E
:1029D000C40108952091000130910101F90131965F
:1029E000205E3F4F80E0919191118F5FE217F307D6
:1029F000D1F70895E0910001F09101018091E70184
:102A00008083E0910001F091010180819091E601C5
:102A1000892B8083E0910001F091010180819091E8
:102A2000E501892B80839091C401992361F0E091A5
:102A30000001F09101018081892B80830E94EA14BA
:102A400081111092C40180910001909101010C94B8
:102A500028096DEE7EEF90E080E00E94982260E011
:102A600082E090E00E94862260E083E090E00E9495
:102A7000862260E084E090E00E94862260E085E0AB
:102A800090E00C94862290E080E00E9480229C01DD
:102A900081E02D3E3E4F09F080E0089582E090E015
:102AA0000C947822682F82E090E00C94862283E0D8
:102AB00090E00C947822682F83E090E00C948622BA
:102AC00084E090E00C947822682F84E090E00C94ED
:102AD000862280911F02843039F11092E90188E149
:102AE00090E020E40FB6F894A895809360000FBEA4
:102AF0002093600080E00E94C30583B7817F8460DB
:102B000083BF83B7816083BF7894889583B78E7FB6
:102B100083BF0FB6F894A895809160008861809378
:102B20006000109260000FBE089508950895CF933D
:102B30000E9495150E946C080E949615C0E08C2F8B
:102B40000E941009811105C0CF5FC630C1F7CF9137
:102B5000089581E0FCCF0E94040E0E941C090C9491
:102B6000C3051F921FB61F9211248F939F93AF939B
:102B7000BF938091E901811113C08091150290915A
:102B80001602A0911702B09118024196A11DB11D25
:102B90008093150290931602A0931702B093180227
:102BA000BF91AF919F918F911F901FBE1F9018955D
:102BB00082E084BD93E095BD9AEF97BD80936E004F
:102BC00008952FB7F8948091150290911602A09164
:102BD0001702B09118022FBF0895CF92DF92EF92A3
:102BE000FF929C014FB7F8948091150290911602C4
:102BF000A0911702B09118024FBF6C017D01EE2425
:102C0000FF24A90170E060E0C416D506E606F706C9
:102C100038F0821B930BFF90EF90DF90CF900895D8
:102C20000197F7CF1F921FB61F9211248F939F9386
:102C3000AF93BF938091150290911602A091170255
:102C4000B09118020196A11DB11D809315029093B9
:102C50001602A0931702B0931802BF91AF919F91F3
:102C60008F911F901FBE1F9018950E94211EF894EF
:102C70002FEF87EA91E6215080409040E1F700C0B5
:102C8000000087E090EBDC018093280290932902FA
:102C9000A0932A02B0932B0288E19CE00FB6F8942F
:102CA000A895809360000FBE90936000FFCFCF92F5
:102CB000DF92EF92FF920F931F93CF93C0E0E82E25
:102CC000F12C8C2F0E94100910E000E0C82ED12CAE
:102CD000C601002E02C0959587950A94E2F780FF01
:102CE00011C0602F7C2F80E00E94C605E816F9060F
:102CF00049F481E0CF911F910F91FF90EF90DF9009
:102D0000CF9008950F5F1F4F0830110509F7CF5F6F
:102D1000C630B9F680E0EECFCF93C82F8CE20E9488
:102D20005716882321F08C2FCF910C94571680E0F2
:102D3000CF910895CF93DF9300D000D0CDB7DEB709
:102D40000E944315811102C00E94291595E69983BE
:102D500008C00E946C088FE39CE90197F1F700C05E
:102D60000000A981A150A983A111F3CF89E20E949B
:102D70008C16811110C18AE20E948C1681110E946A
:102D8000291585E00E948C1681110E9435160E943B
:102D90004E158093E80187E00E948C16882371F01D
:102DA0008BE10E948C16882309F4D1C09091E80130
:102DB000892F8D7F91FF82608093E8018091E801E7
:102DC0000E9452150E94601590E090931A02809321
:102DD000190280EE0E948C16882341F0909119020E
:102DE000892F8E7F90FF81608093190289E30E9472
:102DF0008C16882341F090911902892F8D7F91FFC5
:102E000082608093190282EE0E948C16882341F022
:102E100090911902892F8B7F92FF84608093190211
:102E200086EE0E948C16882341F090911902892F1A
:102E3000877F93FF88608093190283EE0E948C162F
:102E4000882341F090911902892F8F7E94FF806131
:102E50008093190285E30E948C16882341F090919B
:102E60001902892F8F7D95FF80628093190281E37B
:102E70000E948C16882341F090911902892F8F7B34
:102E800096FF80648093190281E10E948C1688234A
:102E900041F090911902892F97FB87F98058809310
:102EA0001902809119020E94641587E20E948C1613
:102EB00089838EE10E948C16882319F0B981B26053
:102EC000B9838FE10E948C16882319F02981246030
:102ED000298380E20E948C16882319F0398138609A
:102EE000398381E20E948C16882319F04981406160
:102EF000498382E20E948C16882319F0598150621E
:102F0000598383E20E948C16882319F0898180649A
:102F1000898384E20E948C168823B1F1998190689C
:102F2000998389810E945B153981232F30E050E01D
:102F300040E029833A834B835C83CA01B9010F9037
:102F40000F900F900F90DF91CF910C94A3118EE012
:102F50000E948C16882339F09091E801892F8B7F8D
:102F600092FF846029CF80E10E948C169091E80145
:102F7000882329F0892F877F93FF88601DCF892FB1
:102F80008E7F90FF816018CFA981A111CACF0E94C6
:102F90005715282FCBCF0F900F900F900F90DF91E8
:102FA000CF9108958091EC0180FF12C060910501DE
:102FB00085E0689FB00111247595679575956795B3
:102FC00060387105A8F561157105A1F1862F089586
:102FD00081FF09C06091050185E0689FB00111245F
:102FE00075956795EDCF6091050182FD0AC08091CE
:102FF000ED018823D1F090910401609105018917BA
:1030000028F085E0689FB0011124DACF869FB001D7
:10301000112485E0869F9001879F300D1124692F30
:1030200070E0C9010E944A22CBCF65E070E0CECFAC
:103030008FE7089581E008958091EC0180FF0CC036
:103040006091030170E075956795759567956115B9
:10305000710549F1862F089581FF06C06091030133
:1030600070E075956795F3CF6091030182FD0BC009
:103070009091ED019923A1F06091020180910301EB
:10308000961738F0682F70E06038710500F38FE70D
:103090000895899FC001112470E00E944A22F4CF54
:1030A00061E070E0D7CF81E00895803F31F40E9465
:1030B000D21781958093F0010895813F19F40E9401
:1030C000D217F8CF823F31F40E94D21781958093B6
:1030D000EF010895833F19F40E94D217F8CF893F7A
:1030E00029F40E941C188093F10108958A3F21F46D
:1030F0000E941C188195F7CF8B3F31F40E941C1859
:1031000081958093F20108958C3F19F40E941C1858
:10311000F8CF843F31F48091EE0181608093EE011D
:103120000895853F21F48091EE018260F7CF863FBC
:1031300021F48091EE018460F1CF873F21F48091EA
:10314000EE018860EBCF883F21F48091EE01806131
:10315000E5CF8D3F31F48091EC0181608093EC01EB
:1031600008958E3F21F48091EC018260F7CF8F3F6C
:10317000B9F78091EC018460F1CF9091EF01803F2D
:1031800041F48091F00187FD1092F001992371F0D4
:103190000895813F29F48091F0011816ACF3F6CF21
:1031A000823F81F497FFF2CF1092EF018091F001FE
:1031B0009091F101892B9091F201892B49F710929E
:1031C000ED010895833F19F4191674F3DFCF893F99
:1031D00039F48091F1011816CCF61092F101D6CF96
:1031E0008A3F29F48091F10187FFD0CFF6CF8B3F42
:1031F00039F48091F20187FFC9CF1092F201C6CF56
:103200008C3F29F48091F2011816BCF3BFCF843FA4
:1032100031F48091EE018E7F8093EE01B7CF853F30
:1032200021F48091EE018D7FF7CF863F21F48091CC
:10323000EE018B7FF1CF873F21F48091EE01877FF4
:10324000EBCF883F21F48091EE018F7EE5CF8D3F5B
:1032500031F48091EC018E7F8093EC0197CF8E3F0B
:1032600021F48091EC018D7FF7CF8F3F09F08ECF55
:103270008091EC018B7FF0CF8EEE91E00E943309BC
:103280000E94E1159093EB018093EA0108951F934A
:10329000CF93DF9300D000D000D0CDB7DEB78091C0
:1032A000EA019091EB010E94ED15AC018091ED01D6
:1032B0002091060130E0811106C0209107019AE0BB
:1032C000299F900111244217530788F02091EF01A4
:1032D000A091F001A9831091F101B091F201BE8398
:1032E00021110FC09A2F912B9B2B09F0B2C026966B
:1032F0000FB6F894DEBF0FBECDBFDF91CF911F9107
:1033000008958F3F19F08F5F8093ED01121624F41A
:103310000E94D2178093EF018091EF0187FF05C0D3
:103320000E94D21781958093EF012981121624F40F
:103330000E94D2178093F0018091F00187FF05C0B1
:103340000E94D21781958093F0018091EF0188232C
:1033500009F455C03091F0013D83332309F44FC087
:10336000282F880F330B440B550B29833A834B834B
:103370005C83CA01B9010E94512123E333E343E393
:103380005FE369837A838B839C8369817A818B81F4
:103390009C810E94B52169837A838B839C83698198
:1033A0007A818B819C810E9419216093EF018D812C
:1033B000082E000C990BAA0BBB0B89839A83AB8355
:1033C000BC83BC01CD010E94512123E333E343E3DD
:1033D0005FE369837A838B839C8369817A818B81A4
:1033E0009C810E94B52169837A838B839C83698148
:1033F0007A818B819C810E9419216093F0011116C2
:1034000024F40E941C188093F1018091F10187FF40
:1034100005C00E941C1881958093F1019E811916A8
:1034200024F40E941C188093F2018091F20187FF1E
:1034300005C00E941C1881958093F20126960FB654
:10344000F894DEBF0FBECDBFDF91CF911F910C94DA
:103450003C198F3F09F057CF68CF85E0EEEEF1E0E1
:10346000DF011D928A95E9F71092ED011092EC01AF
:103470000895809113020895CF93DF9300D00F92A7
:10348000CDB7DEB720911F02243019F523E0298340
:103490008A839B832093E9008FEF9091E80081500D
:1034A00095FD06C095ED9A95F1F700008111F5CFD5
:1034B0008091E80085FF0DC050E040E063E070E0DF
:1034C000CE0101960E94991C8091E8008E7780932E
:1034D000E8000F900F900F90DF91CF910895CF9358
:1034E000DF9300D00F92CDB7DEB79C0180911F0211
:1034F000843031F582E08983205831093B832A8367
:1035000083E08093E9008FEF9091E800815095FD72
:1035100006C095ED9A95F1F700008111F5CF8091E5
:10352000E80085FF0DC050E040E063E070E0CE01B0
:1035300001960E94991C8091E8008E778093E800A4
:103540000F900F900F90DF91CF91089520911F025F
:103550002430F1F422E02093E9002FEF3091E800CD
:10356000215035FD06C035ED3A95F1F700002111E7
:10357000F5CF2091E80025FF0BC050E040E065E06A
:1035800070E00E94991C8091E8008E778093E8009B
:103590000895CF93DF93D82FC92F80911F028430D5
:1035A000F1F4909112019923E9F09091190297FF9B
:1035B00019C08093E9008FEF9091E800815095FD4C
:1035C00006C095E19A95F1F700008111F5CF809141
:1035D000E80050E040E060E270E085FD1AC0DF9155
:1035E000CF91089581E08093E9008FEF9091E800FA
:1035F000815095FD06C095ED9A95F1F70000811177
:10360000F5CF8091E80085FFEACF50E040E068E028
:1036100070E08D2F9C2F0E94991C8091E8008E777E
:103620008093E80080E2ED2FFC2FA3EFB1E0019042
:103630000D928A95E1F7D3CF80911E02811109C0C6
:103640000E94211E0E947E1E8091E2008460809371
:10365000E200089510921E020895089508950C94B2
:10366000AB1542E061EC81E00E949D1D42E061ECFF
:1036700082E00E949D1D42E061EC83E00E949D1D5E
:1036800042E261EC84E00C949D1D8091210289301E
:1036900089F148F4823009F494C0833009F44FC0B2
:1036A000813041F008958A3009F47BC08B3009F4F1
:1036B00061C0089580912002813A09F03FC0809155
:1036C000E800877F8093E800809124029091250292
:1036D000892B61F460E283EF91E070E00E94E81CC6
:1036E0008091E8008B778093E800089560E090E097
:1036F00080E0F3CF80912002813201F58091240295
:1037000090912502009711F00397C1F48091E80091
:10371000877F8093E8008091E80082FF0BC0809152
:10372000F100809313028091E8008B778093E8008A
:103730000C94D11D80911F028111EDCF08958091CD
:103740002002813AD9F78091240290912502892B99
:10375000A9F78091E800877F8093E8008091E800D6
:1037600080FFFCCF809112018093F1008091E800EE
:103770008E77DCCF80912002813201F78091240284
:1037800090912502892BD1F68091E800877F809364
:10379000E8000E94D11D80912202809312010C94B6
:1037A000040E80912002813249F68091E800877FE3
:1037B0008093E8000E94D11D80912302809314021F
:1037C000089580912002813A09F0B8CF8091E800F5
:1037D000877F8093E8008091E80080FFFCCF809194
:1037E0001402C2CF84B7877F84BF0FB6F894A89520
:1037F00080916000886180936000109260000FBE2D
:1038000080E880936100109261000E946B090E9421
:10381000211E0E947E1E8091E20084608093E2005F
:1038200078940E94FE200E946D0988E091E00E9439
:10383000170980911F02853019F00E947309F9CF92
:103840000E94691580911D02882399F30E949715A3
:10385000882379F30E94831CECCF9C01DA01892F25
:10386000992783309105C1F068F48130910509F4FE
:1038700045C0029761F48DE690E02CED36E02D9383
:103880003C93089581329105E1F0829739F190E0FF
:1038900080E030E020E0F3CFC9019927213059F0D2
:1038A0008230910559F0E8EDF6E0892B81F784919B
:1038B00090E09F01E4CFE0ECF6E0F9CFECEAF6E02F
:1038C000F6CF643020F7E62FF0E0EE0FFF1FE35D48
:1038D000FE4F2081318189E090E0D1CF6430B8F68D
:1038E00070E0FB01EE0FFF1FEB5DFE4F2081318189
:1038F0006F5D7E4FFB01808190E0C1CF82E190E05F
:1039000029E437E0BCCF80E189BD82E189BD09B4FB
:1039100000FEFDCF8091D8008F7D8093D8008091EC
:10392000E00082608093E0008091E00081FDFCCFA8
:103930000895AF92BF92CF92DF92FF920F931F93A1
:10394000CF93DF936C01EB018A010E94F01DF82EEA
:10395000811123C00115110539F0F8018081918191
:10396000C81BD90BC80ED91EB12CA12C2097A9F0C9
:103970008091E80085FD22C08091E8008E778093D9
:10398000E80001151105A1F0F80180819181A80ED0
:10399000B91EB182A08285E0F82E8F2DDF91CF91E4
:1039A0001F910F91FF90DF90CF90BF90AF9008953F
:1039B0000E94F01D8823D1F2F82EEFCFF6018191FD
:1039C0006F018093F1002197FFEFAF1ABF0ACECFAE
:1039D000FC01CB01209126023091270226173707E0
:1039E00090F0009729F42091E8002E772093E800CA
:1039F00040E0009751F4411108C08091E80082FF37
:103A000031C080E00895C901F3CF20911F02222325
:103A1000A9F12530A9F12091E80023FD2DC02091C6
:103A2000E80022FDEACF2091E80020FFE2CF3091AC
:103A3000F3002091F200009719F02830310558F07A
:103A400041E02830310509F040E02091E8002E7770
:103A50002093E800CECF41914093F10001972F5F72
:103A60003F4FE9CF80911F02882341F0853041F01C
:103A70008091E80083FFC1CF81E0089582E008953E
:103A800083E00895FC01CB012091260230912702AA
:103A90002617370790F0009729F42091E8002E7739
:103AA0002093E80040E0009751F4411108C0809154
:103AB000E80082FF32C080E00895C901F3CF209171
:103AC0001F022223B1F12530B1F12091E80023FD3E
:103AD0002EC02091E80022FDEACF2091E80020FFCF
:103AE000E2CF3091F3002091F200009719F02830D6
:103AF000310558F041E02830310509F040E02091CF
:103B0000E8002E772093E800CECF44914093F10057
:103B1000319601972F5F3F4FE8CF80911F02882396
:103B200041F0853041F08091E80083FFC0CF81E013
:103B3000089582E0089583E00895982F973028F043
:103B40008F708093E90081E008959093E900242F1D
:103B5000762F50E0981731F07091EC002091ED0035
:103B60005091F00021FD02C09F5FE8CF3091EB0043
:103B70003E7F3093EB003091ED003D7F3093ED00C0
:103B80003091EB0031603093EB007093EC002093A8
:103B9000ED005093F0002091EE0027FDE5CF80E08E
:103BA00008958091200287FF13C08091E80082FF72
:103BB00006C08091E8008B778093E80004C0809174
:103BC0001F028111F2CF089580911F028823D9F33B
:103BD0008091E80080FFF8CF8091E8008E77ECCFED
:103BE0002091E4003091E50095E6A9012091EC00D8
:103BF000822F817020FF06C08091E80080FF06C000
:103C000080E008952091E80022FD1AC080911F02F3
:103C1000882389F0853089F08091EB0085FD0FC005
:103C20002091E4003091E50042175307F9F29150DA
:103C3000E1F684E0089582E0089583E0089581E04C
:103C400008950E948F1E0E94971EE0EEF0E0808192
:103C500081608083E8EDF0E080818F77808319BCFC
:103C6000A7EDB0E08C918E7F8C9380818F7E8083D6
:103C700010921E0208950F931F93CF93DF930E941B
:103C80008F1E0E94971EC8EDD0E088818F778883B1
:103C900088818068888388818F7D888319BC109291
:103CA0001F0210921B0210921D0210921C0200EEC5
:103CB00010E0F80180818B7F808388818160888318
:103CC00042E060E080E00E949D1DE1EEF0E0808136
:103CD0008E7F8083E2EEF0E080818160808380814E
:103CE00088608083F80180818E7F808388818061F5
:103CF0008883DF91CF911F910F910895E8EDF0E057
:103D000080818F7E8083E7EDF0E080818160808319
:103D100084E082BF81E080931E020C943B1EE8ED9C
:103D2000F0E080818E7F80831092E20008951092EF
:103D3000DA001092E10008951F920F920FB60F92D1
:103D400011242F933F934F935F936F937F938F93A0
:103D50009F93AF93BF93EF93FF938091E10082FF16
:103D60000BC08091E20082FF07C08091E1008B7F51
:103D70008093E1000E94FD208091DA0080FF19C04D
:103D80008091D80080FF15C08091DA008E7F8093EB
:103D9000DA008091D90080FF94C080E189BD82E182
:103DA00089BD09B400FEFDCF81E080931F020E940F
:103DB0001C1B8091E10080FF19C08091E20080FF10
:103DC00015C08091E2008E7F8093E2008091E20036
:103DD00080618093E2008091D80080628093D80057
:103DE00019BC85E080931F020E942E1B8091E10088
:103DF00084FF29C08091E20084FF25C080E189BD55
:103E000082E189BD09B400FEFDCF8091D8008F7D8D
:103E10008093D8008091E1008F7E8093E1008091B3
:103E2000E2008F7E8093E2008091E20081608093C7
:103E3000E20080911B02882309F449C084E080934A
:103E40001F020E942F1B8091E10083FF29C08091F7
:103E5000E20083FF25C08091E100877F8093E1002D
:103E600082E080931F0210921B028091E1008E7FFE
:103E70008093E1008091E2008E7F8093E200809148
:103E8000E20080618093E20042E060E080E00E9416
:103E90009D1D8091F00088608093F0000E942D1B92
:103EA000FF91EF91BF91AF919F918F917F916F9112
:103EB0005F914F913F912F910F900FBE0F901F90E8
:103EC000189519BC10921F020E942A1B72CF809174
:103ED000E30087FD02C081E0B2CF83E0B0CF1F9244
:103EE0000F920FB60F9211242F933F934F935F932E
:103EF0006F937F938F939F93AF93BF93CF93DF93F2
:103F0000EF93FF93D091E900DF708091EC00C82F10
:103F1000C17080FDC0E81092E9008091F000877FB9
:103F20008093F00078940E94B31F1092E900809172
:103F3000F00088608093F000CD2BCF70C093E90033
:103F4000FF91EF91DF91CF91BF91AF919F918F91B1
:103F50007F916F915F914F913F912F910F900FBE85
:103F60000F901F9018951F93CF93DF93CDB7DEB7B7
:103F7000AA970FB6F894DEBF0FBECDBF80E292E0E5
:103F8000FC0101962091F100208322E08832920703
:103F9000B9F70E94451B8091E80083FF16C180910C
:103FA0002002909121029A3008F00FC1E92FF0E031
:103FB000EE52FD4D0C945E22803881F0823809F07B
:103FC00004C1809124028F708093E9008091EB00FE
:103FD00085FB882780F91092E90006C080911C02B9
:103FE00090911D02911182609091E800977F9093CB
:103FF000E8008093F1001092F1008091E8008E7744
:10400000E0C0882309F4CEC0823009F0DEC0809180
:1040100022028111D1C0809124028F7009F4D5C091
:104020008093E9002091EB0020FFC6C0933031F46B
:104030008091EB0080628093EB00BEC09091EB001A
:1040400090619093EB0021E030E001C0220F8A954F
:10405000EAF72093EA001092EA008091EB00886072
:10406000EACF8111B2C0109122021F778091E30044
:104070008078812B8093E3008091E800877F809394
:10408000E8000E94D11D8091E80080FFFCCF809164
:10409000E30080688093E30082E0111183E0809365
:1040A0001F0293C08058823008F08FC08091220296
:1040B000909123028C3D23E09207A1F583E08A834F
:1040C0008AE289834FB7F894DE01139620E03EE040
:1040D00051E2E32FF0E050935700E49120FF03C03A
:1040E000E295EF703F5FEF708E2F90E0EA30C0F006
:1040F000C7968D939D932F5F243159F74FBF8091C1
:10410000E800877F8093E8006AE270E0CE010196C4
:104110000E94E81C8091E8008B778093E80055C0EE
:10412000C096E7CFAE014F5F5F4F609124020E94BF
:104130002D1CBC01892B09F448C08091E800877FC1
:104140008093E80089819A810E94421DE3CF8038E4
:10415000E1F58091E800877F8093E80080911B0261
:104160008093F1004ACF811130C0909122029230A9
:1041700060F58091E800877F8093E80090931B02B0
:104180000E94D11D80911B02882311F084E005C09C
:104190008091E30087FDFACF81E080931F020E94A7
:1041A000311B13C080912202813079F481E0933079
:1041B00009F080E080931D021092E9008091E800F0
:1041C000877F8093E8000E94D11D8091E80083FFE3
:1041D0000AC08091E800877F8093E8008091EB001F
:1041E00080628093EB00AA960FB6F894DEBF0FBEF4
:1041F000CDBFDF91CF911F9108950895CF93809106
:104200001F028823A1F0C091E900CF709091EC00CB
:10421000892F817090FD80E8C82B1092E900809171
:10422000E80083FD0E94B31FCF70C093E900CF91D7
:1042300008950E9420216894B1110C94AF21089533
:104240000E94942188F09F5798F0B92F9927B75171
:10425000B0F0E1F0660F771F881F991F1AF0BA952A
:10426000C9F714C0B13091F00E94AE21B1E00895B9
:104270000C94AE21672F782F8827B85F39F0B93FAB
:10428000CCF3869577956795B395D9F73EF49095DD
:104290008095709561957F4F8F4F9F4F0895E8945B
:1042A00009C097FB3EF490958095709561957F4F7E
:1042B0008F4F9F4F9923A9F0F92F96E9BB2793952C
:1042C000F695879577956795B795F111F8CFFAF43C
:1042D000BB0F11F460FF1BC06F5F7F4F8F4F9F4F6D
:1042E00016C0882311F096E911C0772321F09EE8CB
:1042F000872F762F05C0662371F096E8862F70E031
:1043000060E02AF09A95660F771F881FDAF7880F0A
:104310009695879597F9089557FD9058440F551F26
:1043200059F05F3F71F04795880F97FB991F61F037
:104330009F3F79F087950895121613061406551FAE
:10434000F2CF4695F1DF08C0161617061806991F1A
:10435000F1CF86957105610508940895E894BB270F
:1043600066277727CB0197F908950E94C8210C94FE
:1043700039220E942B2238F00E94322220F095230D
:1043800011F00C9422220C94282211240C94AF21B9
:104390000E948C2170F3959FC1F3950F50E0551F3B
:1043A000629FF001729FBB27F00DB11D639FAA278A
:1043B000F00DB11DAA1F649F6627B00DA11D661FD9
:1043C000829F2227B00DA11D621F739FB00DA11DFA
:1043D000621F839FA00D611D221F749F3327A00DB4
:1043E000611D231F849F600D211D822F762F6A2F50
:1043F00011249F5750409AF0F1F088234AF0EE0FB5
:10440000FF1FBB1F661F771F881F91505040A9F7E1
:104410009E3F510580F00C9422220C94AF215F3F07
:10442000E4F3983ED4F3869577956795B795F7951D
:10443000E7959F5FC1F7FE2B880F911D9695879595
:1044400097F9089597F99F6780E870E060E0089514
:104450009FEF80EC089500240A941616170618069C
:104460000906089500240A94121613061406050678
:104470000895092E0394000C11F4882352F0BB0F09
:1044800040F4BF2B11F460FF04C06F5F7F4F8F4F6C
:104490009F4F089597FB072E16F4009407D077FDE1
:1044A00009D00E94642207FC05D03EF490958195C6
:1044B0009F4F0895709561957F4F0895EE0FFF1FF0
:1044C0000590F491E02D0994AA1BBB1B51E107C094
:1044D000AA1FBB1FA617B70710F0A61BB70B881F94
:1044E000991F5A95A9F780959095BC01CD01089523
:1044F000F999FECF92BD81BDF89A992780B50895AC
:10450000A8E1B0E042E050E00C94A022262FF999F7
:10451000FECF92BD81BDF89A019700B4021639F022
:104520001FBA20BD0FB6F894FA9AF99A0FBE0895F3
:104530000196272F0E9487220C948622DC01CB0152
:10454000FC01F999FECF06C0F2BDE1BDF89A3196A3
:1045500000B40D9241505040B8F70895F894FFCF41
:104560002E053A053E05420546054A054E0552050B
:1045700056055A055E05620566056A056E057205F3
:1045800076057A05AF0BAF0B070C070C4B0C670CCD
:10459000DF0BDF0B720CDF0B3A0D3A0DA50DDF0BB5
:1045A000DF0BAE0DDC1F0120E5200120E5203120CE
:0845B0005220E520A720B320F2
:1045B800C5012808140A321E391AC91AA61A6F1A10
:1045C8003C1A0197C63435F4F5F6F7939291909416
:1045D80066404D36391708CA0794075B07EE060789
:0645E8000720073907005F
:00000001FF
