:100000000C94ED000C9434010C9434010C943401E4
:100010000C9434010C9434010C9434010C9434018C
:100020000C9434010C9434010C94E9150C94BD1615
:100030000C9477110C9434010C9434010C94340119
:100040000C9434010C9434010C9434010C9434015C
:100050000C9434010C94C2110C9434010C943401AE
:100060000C9434010C9434010C9434010C9434013C
:100070000C9434010C9434010C9434010C9434012C
:100080000C9434010C9434010C9434010C9434011C
:100090000C9434010C9434010C9434010C9434010C
:1000A0000C9434010C9434010C9434014900165C16
:1000B0001E001F002000210022002A004C002B00FF
:1000C00014001A000800150028005200E1001D006D
:1000D0001B0006001900500051004F00E200E30031
:1000E0002C00E70017001C0018000C001200130081
:1000F0002F000A000B000D000E000F00330034002B
:10010000050011001000360037003800E5004D00F2
:10011000E400010012001200010001003000310073
:100120003900040016000700090023002400250000
:10013000260027002D002E000403300000000A03D3
:100140005300500036003600000016036B006500B7
:100150006C00760069006E0068005F0032003700B6
:1001600000000403090409022200010100A0FA09A9
:1001700004000001030101000921110100012240D6
:10018000000705810308000A1201100100000008A1
:10019000E7DE620101000102030105010906A10178
:1001A000050719E029E71500250195087501810269
:1001B0009501750881010507190029FF150026FF23
:1001C0000095067508810005081901290595057532
:1001D000019102950175039101C011241FBECFEF5B
:1001E000DAE0DEBFCDBF04B603FE27C08091E50193
:1001F0009091E601A091E701B091E8018730904B22
:10020000A740B04BD1F41092E5011092E601109294
:10021000E7011092E80114BE84B7877F84BF0FB650
:10022000F894A89580916000886180936000109296
:1002300060000FBEE0E0F8E3099511E0A0E0B1E056
:10024000EAEBF1E302C005900D92AE31B107D9F7A8
:1002500021E0AEE1B1E001C01D92A53EB207E1F799
:100260000E942C130C94B7180C94000081E00895A0
:1002700081E008950C94380108950C943C011F937B
:10028000CF93DF9300D000D00F92CDB7DEB7498374
:100290005A836B833091360189819A8131111DC057
:1002A0006623B9F02223A9F00E94F50E182F682FBB
:1002B00089819A810E94A10E69817A81812F0F9094
:1002C0000F900F900F900F90DF91CF911F910C9492
:1002D000EB010E94CD0E182FEFCF0E94F50E698121
:1002E0007A81EDCFFC01262F40815181628173819B
:1002F00084810C943F01CF93DF93EC0160E00E9476
:100300007201BE01DF91CF910C943D010E942C102F
:10031000811102C00E94C9100C94AD030C94B0036B
:1003200008950C94900181E008950C949301CF936B
:10033000C82F0E9491018C2FCF910C9495010895A4
:100340000E94830A0E949F012FEF84E39CE02150CA
:1003500080409040E1F700C000000C94E6110F933C
:100360001F93CF93DF93EC0161E00E9472018C0137
:10037000BE010E943A01882329F1BE01C8010E94F2
:1003800037058823F9F0BE01C8010E94780588234B
:10039000C9F0BE01C8010E949B06882399F08A819A
:1003A000882339F001158CE5180751F00E3D1C45E6
:1003B00079F0CE01DF91CF911F910F910C9436010E
:1003C0000E94A00180E0DF91CF911F910F910895CD
:1003D0000E94C910F7CF972F70E027E0929F600D21
:1003E000711D1124FB0196E4899FE00DF11D11247C
:1003F000EE0FFF1FE455FF4F859194910895CF9321
:10040000DF930E94EB010E94D202EC01811523E5EB
:10041000920790F5811532E5930708F096C0811593
:100420009042C8F4C11581E0D80788F4C53AD105D7
:1004300048F4C430D10558F4C130D10541F0D0E0C2
:10044000C0E005C0CE01805E91090897C0F7CE01DB
:10045000DF91CF910895C11591E5D90708F070C0DB
:10046000C11520E5D20708F04EC0C11530E4D3070E
:1004700030F3DF70D06AEBCF811546E59407F0F4D6
:10048000C11585E5D80708F075C0C11594E5D907F1
:1004900008F06BC0CE018370992721E030E002C0E4
:1004A000220F331F8A95E2F7C695C69590E2C99F41
:1004B000E0011124C22BD32BDA68C9CF81152AE5BC
:1004C000920778F4811539E5930708F05EC081152D
:1004D00048E5940708F4B3CFD82FCC27C06FD06A73
:1004E000B6CF90568115904208F0A9CF8D2F8F710D
:1004F0000E94690390E0982F882788279F719C01AC
:100500002C2BE90140C0CE01E4E096958795EA9551
:10051000E1F783702C2F26952695237040E2249FC7
:1005200090011124382B8C2F8370C1E0D0E002C0E1
:10053000CC0FDD1F8A95E2F7C22BD32BDC6887CF67
:10054000DC2FCC27C16FD06A82CF8370992721E03E
:1005500030E002C0220F331F8A95E2F7C695C69598
:1005600080E2C89FE0011124E7CFDC2FCC27C46FC5
:10057000D06A6DCF8C2F0E946903C82FD0E0DC2F8A
:10058000CC27CC27DF71D06262CF8F700E946903C5
:1005900034E0D695C7953A95E1F7CF709C2FEC01E2
:1005A000D06955CF82389105B1F1B0F4813391050E
:1005B00009F475C048F48932910509F469C08A329A
:1005C000910509F473C008958533910509F459C064
:1005D0008933910501F10895833E9105A9F138F41D
:1005E000803E9105F9F0823E910549F10895863EDD
:1005F0009105A9F1873E9105C9F1843E910519F550
:100600002091D70121FF1FC08091D60184FD14C025
:1006100087EE90E008952091D6012370A1F080EE3E
:1006200090E008952091D60120FD47C03091D70178
:1006300030FF09C024FF44C090E080E004C0209156
:10064000D60122FDF7CF08952091D60122FD3BC0AF
:100650003091D70130FDE3CF24FFF5CFEDCF2091CE
:10066000D60123FFF0CF24FDE7CFD2CF2091D601D2
:1006700023FD2CC03091D70131FFEECF84EE90E006
:1006800008952091D60125FFDECF89E290E00895FC
:100690002091D60125FFD7CF85E390E008952091E2
:1006A000D60126FFD0CF8AE290E008952091D601AE
:1006B00026FFC9CF81E390E0089589E390E0089593
:1006C00083EE90E0089582EE90E0089586EE90E04B
:1006D00008959091D60192FF06C0282F28712830E6
:1006E000F9F4877F846093FF06C0282F2871283192
:1006F000F1F4877E84612091D70120FF06C0382F56
:1007000038713830D9F4877F816021FF06C0282FE7
:1007100028712831D1F4877E816194FD877E089508
:10072000282F24712430F9F68B7F8860DCCF282FA6
:100730002471243101F78B7E8861DDCF382F317130
:10074000313019F78E7F8860E0CF282F2171213159
:1007500021F78E7E8861E1CF08950C94AC03089553
:100760000C94AF03E82FF0E0E853FE4F808108952A
:10077000089580EA8A95F1F70895ADE0B1E061E06F
:1007800070E08D91E82FE295EF70F0E041A18F705D
:100790009B0101C0220F8A95EAF7922F909594232E
:1007A00091A382A1822B82A381E0A431B80749F7EB
:1007B000A4E1B1E061E070E08D91E82FE295EF7087
:1007C000F0E041A18F709B0101C0220F8A95EAF7EA
:1007D000922F9095942391A382A1822B82A381E0F2
:1007E000AE31B80749F7EEEBF1E0A8ECB1E088ECE8
:1007F00091E011921D928E179F07D9F78AE00E940F
:1008000093040C9486014F925F926F927F928F9225
:100810009F92AF92BF92CF92DF92EF92FF920F938F
:100820001F93CF93DF939DE0C92E91E0D92E10E066
:1008300000E0712C88248394912C38ECA32E31E0B5
:10084000B32ED6018D916D01C82FC295CF70D0E027
:1008500099A18F70740101C0EE0C8A95EAF7892F77
:100860008E2989A38AA16E2C609486218AA30E9476
:10087000B9039401002E01C0220F0A94EAF7622FF7
:100880002095EEEBF1E084E1482E81E0582E40E027
:100890005191D2013D912D01832F82958F7090E06F
:1008A000DC0190968C9190E03F7002C09595879501
:1008B0003A95E2F7362F352B80FF02C0322F3523D1
:1008C000531729F0CF010197DC013C9341E0AE16AC
:1008D000BF06F1F689A1682269A28AA1E82AEAA2E4
:1008E000742A0F5F1F4F0730110509F0AACF272D7B
:1008F0004AE068EC71E08EEB91E00E9494040E9463
:100900008E01872DDF91CF911F910F91FF90EF9076
:10091000DF90CF90BF90AF909F908F907F906F901F
:100920005F904F9008950895FF920F931F93CF9378
:10093000DF93F82E092F162FD72FC42F222349F02B
:1009400081E0809320010E94A71190931F01809362
:100950001E01809120018823A1F080911E019091B9
:100960001F010E94B311069760F0EF2DF02FA12F09
:10097000BD2FCE0FDF2FD11DEC17FD0741F41092D4
:100980002001DF91CF911F910F91FF9008958191E8
:100990008D93F2CF0F931F93CF93DF93C62FD42F56
:1009A000022FFC0182818823C9F0609323010E94F9
:1009B000A711909322018093210180E28C0F88304F
:1009C00008F050C0C77081E001C0880FCA95EAF7EF
:1009D000DF91CF911F910F910C9457081091230133
:1009E000161335C080912101909122010E94B3110C
:1009F000883C910560F5C0E2CD0F1D17B9F080E28B
:100A0000810F883040F4177081E001C0880F1A957B
:100A1000EAF70E945E08C83048F481E09D2F977085
:100A200001C0880F9A95EAF70E945708802F0E940C
:100A30004408C830B8F4D77081E001C0880FDA9557
:100A4000EAF7DF91CF911F910F910C945E0880E23D
:100A50008C0F883038F4C77081E001C0880FCA95C8
:100A6000EAF7EFCFDF91CF911F910F9108959C018D
:100A7000CB01233F4CE5340731F190F4283DFCE5F0
:100A80003F07E9F0293D4CE5340769F1273D3C4536
:100A900079F426E241EE61EE0E94CA0480E00895F6
:100AA000253FFCE53F07B9F090F0263F3C45B9F003
:100AB000FC0182818823D1F010922301089527E25E
:100AC00045EE65EEE9CF26E241EE60EEE5CF27E2A6
:100AD00045EE64EEE1CF26E241EE62EEDDCF27E2A5
:100AE00045EE66EED9CF28E241E0EBCF81E00895F4
:100AF000CF93DF93EC01FB018281882309F419C1B4
:100B0000C230FCE5DF07C0F1C6319CE5D90730F003
:100B10009E012A5F3C452930310570F50E943F1047
:100B20009093D7018093D601C031ECE5DE0709F43C
:100B3000CFC008F05BC0C8308CE5D80709F4B6C058
:100B400088F5C430ECE5DE0709F4A8C0C0F4C23073
:100B50008CE5D80709F49CC08091D6018260C3302F
:100B6000DC4509F498C08091D6019091D7010E948C
:100B70004D100E94830A80E0DF91CF91089580910B
:100B8000D6018061C630ECE5DE0709F484C08091AF
:100B9000D6018860C730DC4508F47DC08091D6015D
:100BA000806279C0CC308CE5D80709F489C070F434
:100BB0008091D6018C60CA30ECE5DE0709F46BC089
:100BC00008F478C08091D6018E7F65C0CE308CE568
:100BD000D80709F479C08091D6018B7FCF30DC45EE
:100BE00008F459C08091D6018F7E55C0CB3FECE50B
:100BF000DE0709F457C030F5C3318CE5D80709F496
:100C00006FC078F4C131ECE5DE0709F465C0C2318C
:100C1000DC4509F0A8CF0E94830A8091D6018F7726
:100C20003AC0C5318CE5D80709F462C008F476C033
:100C30008091D7018160CA3FDC4509F094CF809351
:100C4000D70191CFCF3FFCE5DF0709F44DC088F411
:100C50008091D7018D7FCD3F9CE5D90781F38091AD
:100C6000D7018E7FCE3FDC4550F38091D701836062
:100C7000E6CFC130FDE5DF0709F459C008F444C0F0
:100C800080E0C230DD4509F06ECF0E94CB106BCF03
:100C90008091D60181608093D60165CF8091D60185
:100CA0008460F9CF8091D7018260C9CF8091D6014D
:100CB0008064F1CF0E94830A8091D6018068EBCFD7
:100CC0008091D6018D7FE7CF8091D601877FE3CFDA
:100CD0008091D6018F7DDFCF8091D6018F7BDBCFD6
:100CE0008091D601837FD7CF8091D7018C7FA7CF0A
:100CF0008091D60182FB992790F921E0922790FB01
:100D000082F990FB83F9C7CF8091D701982F9095F6
:100D100091708E7F892B90FB81F991CF0E94830A7D
:100D20009091D601892F97FB87F98058B4CF81E045
:100D3000ACCF81E021CFCF93DF93EB0186319C458F
:100D400011F50E948A0F9A81992399F08A7A91E08D
:100D500009F490E090932401811109C089E20E9476
:100D6000650F0E94C90F80E0DF91CF91089585E360
:100D7000F6CF80912401811104C089E20E946C0F9A
:100D8000F0CF85E3FBCF81E0EFCF90932A018093F2
:100D900029010895E0912901F0912A01309721F06D
:100DA0000190F081E02D099480E00895E0912901FF
:100DB000F0912A01309721F00280F381E02D09940F
:100DC000089520912701309128012817390771F0E3
:100DD0009093280180932701E0912901F0912A0145
:100DE000309721F00680F781E02D09940895209135
:100DF0002501309126012817390771F090932601BB
:100E000080932501E0912901F0912A01309721F08A
:100E10000084F185E02D0994089585B7806885BF29
:100E200085B7806885BF0895089508950C941407C8
:100E300008950C9418070E940D070E9415070C9442
:100E4000160781E008950C9421070E949E110E94CC
:100E5000BD030E940A120C941907BF92CF92DF9231
:100E6000EF92FF920F931F93CF93DF93CDB7DEB72F
:100E70002A970FB6F894DEBF0FBECDBF0E940304C1
:100E80000E942307882309F45CC08CE2C82E81E00D
:100E9000D82E10E000E0B02E802F0E94B203E82E82
:100EA000F601F1906F01F81609F445C08091B10187
:100EB00081FD0E94B8039F2D9E2580E0FF24F394BE
:100EC000292F2F21A1F18E83BF82EF2081E009F429
:100ED00080E088870E94A7118160782F9A87898790
:100EE0004E815F8168858A850E94C207F801E45DB2
:100EF000FE4F8081F826F0820E94CA0690912B0155
:100F0000891781F10E94CA0680932B012A960FB699
:100F1000F894DEBF0FBECDBFDF91CF911F910F912F
:100F2000FF90EF90DF90CF90BF900C9497018F5F70
:100F3000FF0C873029F60F5F1F4F0A30110509F0AB
:100F4000AACF8FEF89838A831B820E94A7118160B9
:100F5000782F9D838C8349815A816B818D810E947A
:100F6000C207CACF2A960FB6F894DEBF0FBECDBF18
:100F7000DF91CF911F910F91FF90EF90DF90CF9075
:100F8000BF900895CF93DF93CDB7DEB72B970FB601
:100F9000F894DEBF0FBECDBF4F83588769877A872D
:100FA0008B871E821D8285E0FE013796DE01119639
:100FB00001900D928A95E1F749815A816B817C817C
:100FC0008D819E812B960FB6F894DEBF0FBECDBFEC
:100FD000DF91CF910C94F90CFC01808191810C94EC
:100FE000370FCF93C82F882329F18CEF8C0F813ACC
:100FF000A0F46C2F80910001909101010E94E210F9
:10100000882329F08C2F0E946C0F0E94C90F8C2F0F
:101010000E94650FCF910C94C90F80E28C0F88302D
:1010200048F4C77081E001C0880FCA95EAF70E94B2
:101030008D0FF0CFCF910895882329F19CEF980F61
:10104000913A20F40E946C0F0C94C90F90E2980F13
:10105000983050F4877091E001C0990F8A95EAF7B3
:10106000892F0E94930FF0CF9BE5980F933020F4C7
:1010700090E080E00C94E106885A873120F490E0FB
:1010800080E00C94F7060895CF93C82F0E94F107D3
:10109000C93349F42FEF87EE93E021508040904010
:1010A000E1F700C000008C2FCF910C941C0888231E
:1010B00021F00E948D0F0C94C90F0895882321F010
:1010C0000E94930F0C94C90F0895BF92CF92DF92A4
:1010D000EF92FF920F931F93CF93DF936C01D62F64
:1010E000C72FFC01158112951F70028101110E940A
:1010F000AA0F0E94830FE82E882371F00023C9F005
:1011000080E28D0F8830A8F082E00E9414100E94C7
:10111000830F91E0E82EE926BC2EB2949FE0B9221D
:10112000FBE0FB15A8F1EB2DF0E0E754F74E0C9433
:101130006F18E12CF1CF1C2F1F70C07F11F012959A
:10114000107F0023A9F0112359F080E28D0F883021
:1011500010F0D11109C0812F0E948D0F0E94C90F7C
:101160008D2F0E94F10714C0812F0E949D0FF6CF92
:101170008D2F0E941C08112359F080E28D0F8830BA
:1011800010F0D1112CC0812F0E94930F0E94C90F23
:101190002B2D2850330B2430310520F40E94CA0631
:1011A0000E949701EE2009F467C10E947F0F80FD25
:1011B00063C1F60112820E94790F0E94050EC601DA
:1011C0000E945D0A0E94790FDF91CF911F910F91CC
:1011D000FF90EF90DF90CF90BF900C94260E812F60
:1011E0000E94A30FD3CF2C2F2F70F22EC07FC032BE
:1011F00019F0F29480EFF822DD2369F0D13049F143
:10120000002391F1112351F1F601858180FFA8CFD0
:101210008F70858323C0002381F0111106C00E94C6
:10122000B00F8F290E945708B3CF1130C1F70E9429
:10123000B00F8F290E94B60FABCF111106C00E94CC
:10124000BF0F8F2D0E945E08A3CF113009F4A0CFED
:10125000F6CF002329F0163008F09ACF8F2DE2CF79
:10126000153008F095CFEDCF112359F3D93349F458
:10127000FFEF27EE33E0F15020403040E1F700C0AF
:1012800000008D2F0E941C0883CF8C2F837009F0E3
:1012900041C001117DCF4D2F429546954770440FB7
:1012A000440F0D2F0F7010E030E020E0042E04C03A
:1012B000000F111F221F331F0A94D2F760E070E065
:1012C000CB01D4FF0FC06FE070E080E090E004C07D
:1012D000660F771F881F991F4A95D2F76095709502
:1012E00080959095C695C695C370602B712B822B07
:1012F000932BC23049F058F4C13019F00E94B70D59
:1013000047CF0E94A50D44CF0E94C90D41CF0E9436
:10131000A30D3ECF8695002311F08C2F817088237A
:1013200009F436CF4D2F429546954770440F440F30
:101330000D2F0F7010E030E020E0042E04C0000FED
:10134000111F221F331F0A94D2F760E070E0CB0117
:10135000D4FF0FC06FE070E080E090E004C0660F43
:10136000771F881F991F4A95D2F7609570958095D1
:101370009095C695C695C370602B712B822B932BCD
:10138000C23049F058F4C13019F00E947C0E00CFF1
:101390000E946A0EFDCE0E948E0EFACE0E94DF0DD4
:1013A000F7CECF70002329F08C2F0E94050E8D2FD1
:1013B00039CF8D2F0E945E088C2F0E94260EE8CE1A
:1013C000D23F89F160F4D03FC9F0D13F29F1002329
:1013D00009F442C01111C4CE8C2F8F7121C0D33FAC
:1013E00039F1D43FA1F7002369F1CF718C2F0E940E
:1013F000050E63E08C2F0E94FF0FCACE002341F040
:10140000153008F0C5CE8C2F8F710E94490EC0CECA
:10141000163008F0BDCEF7CF8C2F8F71002369F204
:101420000E94050EB5CE8C2F8F710023C9F3C5CF56
:10143000002329F08C2F8F710E94F00DA9CE0E94FD
:10144000EB0DA6CE81E00E941410123008F4A0CE5D
:1014500082E00E9414109CCE112359F0D93309F078
:1014600010CF8FEF97EEE3E081509040E040E1F73E
:1014700006CF8C2F8F71A1CFDF91CF911F910F914C
:10148000FF90EF90DF90CF90BF9008950F931F9340
:10149000CF93DF93EC01688179818A810E94410FAB
:1014A0008C010E94A00E0E94A20DB801CE01DF9116
:1014B000CF911F910F910C946508CF93DF93EC01AE
:1014C0008B819C81892B29F08881998189238F3F89
:1014D00019F4DF91CF910895CE010E94AF018823C6
:1014E000C1F3CE010E94460ACE01DF91CF910C9448
:1014F0007B010E94AA0F0E94AD0F0C94C90F0E949D
:10150000730F0C94790A0E949A0F0C947F0AE92FAA
:10151000E295EF70E250EE3070F4F0E0EB53F74EEE
:101520000C946F18803F19F020F4883E20F481E07D
:101530000895843FE1F380E00895883EC0F3813F41
:10154000D1F7F5CF93FB882780F908950E94370FD4
:101550000C94870ACF93DF9300D000D00F92CDB7C1
:10156000DEB70F900F900F900F900F90DF91CF91FB
:101570000895CF93DF9300D000D000D0CDB7DEB771
:1015800026960FB6F894DEBF0FBECDBFDF91CF9188
:1015900008951F93CF93DF93C091370116E0809198
:1015A00038018C1304C0DF91CF911F910895D0E0D2
:1015B0001C9FF0011D9FF00D1124E75CFE4F408140
:1015C000518162817381848195810E94B90A21963B
:1015D000C770E5CF4091690150916A0160916B013C
:1015E00070916C0180916D0190916E010C94B90A1B
:1015F0001F93CF93DF9380916E01807FA9F4809138
:101600006B01882389F080913701C0913801609186
:10161000690170916A01A0916C01B0916D01D62FA2
:10162000D72316E0C81304C0DF91CF911F9108950E
:1016300090E0109711F0DF3F19F401968770F2CF18
:10164000189F9001199F300D1124F901E75CFE4F9E
:1016500041814713F2CF40814613EFCF42814111C0
:10166000ECCF438154814A1B5B0B483C510528F762
:1016700080916E018F70806180936E01F901E25C50
:10168000FE4F80818F708061808389E691E00E94A7
:101690005D0ADF91CF911F910C94C90AAF92BF925E
:1016A000CF92DF92EF92FF920F931F93CF93DF932E
:1016B000CDB7DEB761970FB6F894DEBF0FBECDBFD2
:1016C0008C0185E0F801DE011D9601900D928A954E
:1016D000E1F7F80140815181E28089E6C82E81E07E
:1016E000D82E60916C0170916D016115710509F43E
:1016F00061C19091690120916A01892F82238F3FF6
:1017000009F458C1A380B480F0906B01F501E61B89
:10171000F70BFF2009F4FCC080916E01382F307F59
:10172000E83CF10508F0B2C0311179C0FE2C251358
:1017300023C0941321C0E1101FC08F70806180937B
:101740006E010E94EA0AC6010E945D0A80916E0144
:10175000F80185838F2D61960FB6F894DEBF0FBE1A
:10176000CDBFDF91CF911F910F91FF90EF90DF9050
:10177000CF90BF90AF900895AB2829F0842F852398
:101780008F3F09F033C180E0F82FF170DF2E80FF2A
:101790003CC0809137012091380136E0821315C09A
:1017A0004D875E878D859E850E94370F292F229554
:1017B0002F702230F0F0243018F59F70F1F0F8010E
:1017C0009581907FD1F4D12C1EC090E0389FF0011C
:1017D000399FF00D1124E75CFE4F6181651306C04F
:1017E0006081641303C062816E110FC0019687701F
:1017F000D5CF9F7011F0882331F3805E883018F3C5
:10180000C8010E945D0AFD2CA5CFEE2009F4A2CFED
:1018100080916E01816080936E01F12C9BCF251326
:1018200006C0941304C0F801EE2009F48DC04D8762
:101830005E878D859E850E94A60A882319F1EE2079
:1018400009F180916E01803270F020916901309130
:101850006A0138872F831986BB86AA868C87CE01BA
:1018600007960E945D0A86E0F801A9E6B1E00190C2
:101870000D928A95E1F70E94F80A0E94EA0AFF2475
:10188000F39468CFC8010E945D0AF9CF311113C0EB
:101890007A2DB98AA88A6E2D89890E94AA0A89E6BA
:1018A00091E00E945D0A86E0F60111928A95E9F7BF
:1018B0000E94EA0AB2CF25130FC094130DC0E110A5
:1018C0000BC0F8018583C8010E945D0A86E0F6011D
:1018D00011928A95E9F73ECF4D875E878D859E856B
:1018E0000E94A60A882371F2EE2061F280916E01B7
:1018F000803208F4B8CF2091690130916A013A83AF
:1019000029831B82BD82AC828E83CE010196A9CF32
:10191000E83CF10508F041C0FE2CEE2009F4B2CFFE
:1019200025132AC0941328C080916E0180FD1BC02E
:10193000982F907FC1F0F8018583903F31F0982F68
:10194000907F905F8F70892B8583C8010E945D0A0C
:1019500086E0F801A9E6B1E001900D928A95E1F7E1
:101960000E94EA0AF7CE86E0F801A9E6B1E001900C
:101970000D928A95E1F7EECE4D875E878D859E8527
:101980000E94A60A81116FCF80916E0181608093C1
:101990006E01C8010E945D0ADDCE7A2DB98AA88A3F
:1019A0006E2D89890E94AA0A86E0F60111928A9515
:1019B000E9F7D6CFEE2009F465CF4D875E878D8598
:1019C0009E850E94A60AF82E882309F45BCF86E044
:1019D000F801A9E6B1E001900D928A95E1F789E658
:1019E00091E00E94EC070E94F80ABACF81E08E25B0
:1019F000CBCE1F93CF93DF93CDB7DEB72C970FB627
:101A0000F894DEBF0FBECDBF4F83588769877A87B2
:101A10008B879C87CE0107960E944E0B882369F026
:101A20008A859B85892B39F04F815885842F8523A2
:101A30008F3F09F071C016E05FC086E0FE01379667
:101A4000DE01119601900D928A95E1F78A859B85BA
:101A5000892B89F38F81988589238F3F61F32091AA
:101A6000380130E0C901019687709927409137010C
:101A70004817190671F40E94830A109238011092D7
:101A8000370186E0E9E6F1E0DF011D928A95E9F78A
:101A9000D2CF96E0929FD001939FB00D1124A75C06
:101AA000BE4FFE01319601900D929A95E1F7809319
:101AB00038010E94C90ABFCF819FC0011124875CF1
:101AC0009E4F0E944E0B8823E9F0E09137011E9F44
:101AD000F0011124E75CFE4F4081518162817381E6
:101AE000848195810E94B90A8091370190E0019626
:101AF0008770992780933701809137019091380141
:101B00008913DACF2C960FB6F894DEBF0FBECDBF87
:101B1000DF91CF911F91089569857A858B859C858A
:101B20000E94B90A88CF08950C94930D0E94940DD9
:101B30006093A0017093A1018093A2019093A301EF
:101B40000C94790A08950C94960D0F931F930091AD
:101B5000A0011091A1012091A2013091A301602B5D
:101B6000712B822B932B1F910F910C94960D0F9339
:101B70001F930091A0011091A1012091A201309129
:101B8000A30160237123822393231F910F910C944F
:101B9000960D0F931F930091A0011091A101209128
:101BA000A2013091A30160277127822793271F91FB
:101BB0000F910C94960D0C94930D0C94DB0D0E94D8
:101BC000DD0D60939C0170939D0180939E01909325
:101BD0009F010C94790A60E070E0CB010C94DF0D5A
:101BE0000F931F9341E050E060E070E08A019B0199
:101BF00004C0000F111F221F331F8A95D2F7C9019D
:101C0000B8011F910F910C94DF0D0F931F9341E0CA
:101C100050E060E070E004C0440F551F661F771F5E
:101C20008A95D2F780919C0190919D01A0919E018F
:101C3000B0919F018A019B01082B192B2A2B3B2B6A
:101C4000C901B8011F910F910C94DF0D0F931F93E1
:101C500041E050E060E070E004C0440F551F661F93
:101C6000771F8A95D2F7CB01BA0160957095809560
:101C7000909500919C0110919D0120919E013091C1
:101C80009F0160237123822393231F910F910C9452
:101C9000DF0D0F931F9341E050E060E070E004C05F
:101CA000440F551F661F771F8A95D2F780919C01BC
:101CB00090919D01A0919E01B0919F018A019B018D
:101CC000082719272A273B27C901B8011F910F911F
:101CD0000C94DF0D0F931F9300919C0110919D01B7
:101CE00020919E0130919F01602B712B822B932BB1
:101CF0001F910F910C94DF0D0F931F9300919C0186
:101D000010919D0120919E0130919F0160237123CC
:101D1000822393231F910F910C94DF0D0F931F9338
:101D200000919C0110919D0120919E0130919F0195
:101D300060277127822793271F910F910C94DF0D45
:101D4000089527E0929F800D1124982F977041E00D
:101D500001C0440F9A95EAF786958695869595E099
:101D6000899FF0011124E159FE4F90E080E070E07E
:101D70005191DF0111979B01082E02C036952795DE
:101D80000A94E2F7217021952527242325272C93F7
:101D900001968530910561F7089527E0929F800DA7
:101DA0001124982F977086958695869525E0829FB9
:101DB000F0011124E159FE4F50E040E080E0219114
:101DC00030E0092E02C0369527950A94E2F721707B
:101DD0003327042E01C0220F0A94EAF7822B4F5FAB
:101DE0005F4F4530510559F70895BF92CF92DF926A
:101DF000EF92FF920F931F93CF93DF938C01C090CC
:101E00009C01D0909D01E0909E01F0909F018091F7
:101E1000A0019091A101A091A201B091A301C82AB3
:101E2000D92AEA2AFB2ACFE1D0E0BC2ED701C6018D
:101E30000C2E04C0B695A795979587950A94D2F76E
:101E400080FD0EC0219788F7B12C8B2DDF91CF91AB
:101E50001F910F91FF90EF90DF90CF90BF9008956A
:101E6000B8018C2F0E94FF01019761F3EECFCF9351
:101E7000DF93EC010E94F50EBE01DF91CF910C942F
:101E8000FF011F93CF93DF93EB01909136019923CC
:101E900031F0CB01DF91CF911F910C94370F882344
:101EA00079F0CB010E94F50E182F682FCE010E9409
:101EB000A10EBE01812FDF91CF911F910C94FF01E4
:101EC000CB010E94CD0E182FF4CF682F8091000116
:101ED000909101010C941811682F8091000190914C
:101EE00001010C941A1180910001909101010C9450
:101EF0001C118091A4018595859585950895809103
:101F0000A401877008959091A401977081E009F46D
:101F100080E008958091B00108959091B001892BDF
:101F20008093B001089580959091B001982390938B
:101F3000B00108951092B00108959091AF01892BDE
:101F40008093AF01089580959091AF01982390936D
:101F5000AF0108951092AF0108951092AE01089557
:101F60008091A501089508950C94B30F9091A50157
:101F7000981721F08093A5010C94B40F08958091D7
:101F8000A501882329F01092A50180E00C94B40FDC
:101F90000895E0910001F09101018091B0018083EA
:101FA000E0910001F091010180819091AF01892BB6
:101FB0008083E0910001F091010180819091AE0158
:101FC000892B80839091A501992381F0E0910001F4
:101FD000F09101018081892B808380910001909193
:101FE00001010E94D01081110E94BF0F8091000159
:101FF000909101010C94D60608950C94FC0F98E082
:10200000899F90011124622B6093A4010E94050E08
:102010008091A4018595859585950C94FD0F10926E
:10202000A40180E00C94FD0F9091A4018095892378
:102030008093A401282F277071F4282F082E000CFC
:10204000330B9217130639F08595859585950E9477
:10205000260E0C940F10089590E080E00E947D18E9
:1020600021E08C3E9E4F09F020E0822F089582E00F
:1020700090E00C94751883E090E00C947518CF9361
:1020800084E090E00E947518C82F81E290E00E94E1
:102090007518982F8C2FCF910895CF93C92F682F43
:1020A00084E090E00E9483186C2F81E290E0CF9151
:1020B0000C948318AB01BC018FE090E00C94951850
:1020C000AB01BC0183E190E00C94951860E070E0F6
:1020D000CB010C94601060E070E0CB010E945A10BC
:1020E0000C9466106CEE7EEF90E080E00E94A118E8
:1020F00060E082E090E00E94831860E083E090E07E
:102100000E9483181092A0011092A1011092A201C6
:102110001092A30160E084E090E00E94831860E0E8
:1021200081E290E00E94831860E085E090E00E94E8
:10213000831860E086E090E00E9483186FEF87E0EC
:1021400090E00E94831840E050E0BA0188E090E0FF
:102150000E94951860E08DE090E00E94831840E0B6
:1021600050E0BA0188E190E00E94951860E087E1B4
:1021700090E00E94831840E050E0BA018CE190E0CA
:102180000E94951860E080E290E00E9483180C9411
:102190006B100C947210682F8EE090E00C948318F2
:1021A0009C012E5F3F4FAC01485F5F4F80E02417DA
:1021B000350709F40895F90191919F019923B9F325
:1021C0008F5FF5CF662349F0FC0132960896219186
:1021D000261729F0E817F907D1F780E0089581E084
:1021E00008959C01FC0132969FEF80E041914617D3
:1021F00051F09F3F19F4411101C0982F8F5F863035
:10220000A9F79F3F09F40895290F311D97FD3A95CD
:10221000F90162830895FC013296089621912613F4
:1022200003C0DF0111971C92E817F907B9F7089569
:102230000C94F1100C940B11029626E0FC01119203
:102240002A95E9F70895089508950C9424110E94A1
:1022500025118091DC01843049F11092B20188E1AE
:1022600090E020E40FB6F894A895809360000FBE2C
:102270002093600080E00E9497010E94251183B79F
:10228000817F846083BF83B7816083BF78948895A2
:1022900083B78E7F83BF0FB6F894A89580916000B6
:1022A000886180936000109260000FBE08950895C9
:1022B000CF930E9423110E9403040E945711C0E093
:1022C0008C2F0E94B203811105C0CF5FCA30C1F7C5
:1022D000CF91089581E0FCCF08950C946C110E9479
:1022E000830A0E94CA060E9497010C946D111F92E6
:1022F0001FB61F9211248F939F93AF93BF9380912A
:10230000B201811113C08091D2019091D301A091AB
:10231000D401B091D5014196A11DB11D8093D20188
:102320009093D301A093D401B093D501BF91AF9105
:102330009F918F911F901FBE1F90189582E084BDC2
:1023400093E095BD9AEF97BD80936E0008952FB7E7
:10235000F8948091D2019091D301A091D401B091D1
:10236000D5012FBF08959C014FB7F8948091D201F9
:102370009091D301A091D401B091D5014FBF821BA0
:10238000930B089578941F921FB61F9211248F9378
:102390009F93AF93BF938091D2019091D301A0916D
:1023A000D401B091D5010196A11DB11D8093D20138
:1023B0009093D301A093D401B093D501BF91AF9175
:1023C0009F918F911F901FBE1F90189581E0809361
:1023D000E00080E28093D8001092C9008FE19EE473
:1023E0000197F1F700C0000087E090EBDC018093DB
:1023F000E5019093E601A093E701B093E80188E13D
:102400009CE00FB6F894A895809360000FBE90935F
:102410006000FFCF0E942C10811102C00E94C910E1
:102420000E9437108093B1010E943F109093D70112
:102430008093D6010E943B10682F70E090E080E00E
:102440000C94A30D8091BB01089508950895CF9336
:10245000DF93EC010E94C113823011F0843039F512
:1024600081E08093E9008FEF9091E800815095FD25
:1024700006C095ED9A95F1F700008111F5CF809196
:10248000E80085FF14C050E040E068E070E0CE0155
:102490000E94DE138091E8008E778093E80088E048
:1024A000FE01A3EBB1E001900D928A95E1F7DF9177
:1024B000CF91089508958091DB01811109C00E9498
:1024C0006E150E94CB158091E20084608093E2003B
:1024D00008951092DB010895089508950C946F11EA
:1024E00042E061EC81E00C94EA148091DE018330DB
:1024F00009F45FC030F48130C1F1823009F49BC02F
:1025000008958A3009F487C08B3009F46DC0893092
:1025100009F04EC08091DD01813209F049C08091FF
:10252000E1019091E201892B09F042C08091E8001D
:10253000877F8093E8008091E80082FF35C090910A
:10254000F3008091F200029729F48091F1008B7FD3
:10255000813021F48091F1008093BB018091E800EB
:102560008B778093E8000C941E158091DD01813AF1
:10257000F9F48091E800877F8093E8008091E10181
:102580009091E201892B61F468E083EB91E070E0C7
:102590000E942D148091E8008B778093E8000895C5
:1025A00060E090E080E0F3CF8091DC018111C3CF47
:1025B00008958091DD01813AD9F78091E1019091F0
:1025C000E201892BA9F78091E800877F8093E800DA
:1025D0008091E80080FFFCCF80910C018093F10096
:1025E0008091E8008E77BDCF8091DD01813201F7C7
:1025F0008091E1019091E201892BD1F68091E80070
:10260000877F8093E8000E941E158091DF018093F0
:102610000C010C94830A8091DD01813249F680918E
:10262000E800877F8093E8000E941E158091E001FA
:102630008093BC0108958091DD01813A09F0B8CF03
:102640008091E800877F8093E8008091E80080FF18
:10265000FCCF8091BC01C2CF84B7877F84BF0FB607
:10266000F894A89580916000886180936000109232
:1026700060000FBE80E890E00FB6F8948093610090
:10268000909361000FBE0E941B070E946E150E946E
:10269000CB158091E20084608093E20078940E94E0
:1026A00054180E94250782E091E00E94C50680919F
:1026B000DC01853019F00E942D07F9CF0E94271107
:1026C0008091DA01882399F30E945811882379F3C5
:1026D0000E94C813ECCF0C946D13292F332723309D
:1026E0003105C9F058F421303105C9F122303105E6
:1026F000D9F190E080E030E020E020C021323105C7
:1027000039F122323105A9F780E490E02AE931E07D
:10271000672B79F713C099278130910599F00097BD
:1027200041F08230910589F0039719F7E8E3F1E071
:1027300002C0E2E6F1E0849190E09F01FA0131836A
:1027400020830895EAE4F1E0F6CFEEE3F1E0F3CF81
:1027500089E090E028E731E0672B59F6EFCF82E17E
:1027600090E028E831E0EACF82E290E026E631E02E
:10277000E5CF8091DC01843011F482E0089581E09E
:1027800008958091BD01811102C00C94B913089580
:1027900080E189BD82E189BD09B400FEFDCF809151
:1027A000D8008F7D8093D8008091E0008260809374
:1027B000E0008091E00081FDFCCF0895AF92BF92D0
:1027C000CF92DF92FF920F931F93CF93DF936C0111
:1027D000EB018A010E943D15F82E811123C00115DD
:1027E000110539F0F80180819181C81BD90BC80E01
:1027F000D91EB12CA12C2097A9F08091E80085FD6D
:1028000022C08091E8008E778093E80001151105C1
:10281000A1F0F80180819181A80EB91EB182A08239
:1028200085E0F82E8F2DDF91CF911F910F91FF90B2
:10283000DF90CF90BF90AF9008950E943D15882300
:10284000D1F2F82EEFCFF60181916F018093F10064
:102850002197FFEFAF1ABF0ACECFFC018091E301B1
:102860009091E40186179707A0F06115710529F48E
:102870009091E8009E779093E80090E061157105D3
:1028800051F4911108C08091E80082FF34C080E0CB
:102890000895BC01F2CF8091DC018823C1F185301D
:1028A000C1F18091E80083FD30C08091E80082FD95
:1028B000EACF8091E80080FFE1CF8091F300209182
:1028C000F200382F6115710519F02830310558F0E4
:1028D00091E02830310509F090E02091E8002E7752
:1028E0002093E800CBCF81918093F1006150710972
:1028F0002F5F3F4FE7CF8091DC01882341F0853087
:1029000041F08091E80083FFBECF81E0089582E02E
:10291000089583E00895FC018091E3019091E40122
:1029200086179707A0F06115710529F48091E800DA
:102930008E778093E80090E06115710551F4911154
:1029400008C08091E80082FF35C080E00895BC0196
:10295000F2CF8091DC018823C9F18530C9F18091E3
:10296000E80083FD31C08091E80082FDEACF8091CC
:10297000E80080FFE1CF8091F3002091F200382F32
:102980006115710519F02830310558F091E02830B3
:10299000310509F090E08091E8008E778093E8009F
:1029A000CBCF84918093F1003196615071092F5FF4
:1029B0003F4FE6CF8091DC01882341F0853041F024
:1029C0008091E80083FFBDCF81E0089582E0089503
:1029D00083E00895982F973028F08F708093E90056
:1029E00081E008959093E900242F762F50E0981706
:1029F00031F07091EC002091ED005091F00021FD3C
:102A000002C09F5FE8CF3091EB003E7F3093EB0038
:102A10003091ED003D7F3093ED003091EB0031605F
:102A20003093EB007093EC002093ED005093F00096
:102A30002091EE0027FDE5CF80E008958091DD0133
:102A400087FF13C08091E80082FF06C08091E800F4
:102A50008B778093E80004C08091DC018111F2CF74
:102A600008958091DC018823D9F38091E80080FFEC
:102A7000F8CF8091E8008E77ECCF2091E400309180
:102A8000E50095E6A9012091EC00822F817020FFDE
:102A900006C08091E80080FF06C080E00895209184
:102AA000E80022FD1AC08091DC01882389F085307E
:102AB00089F08091EB0085FD0FC02091E4003091FA
:102AC000E50042175307F9F29150E1F684E00895CA
:102AD00082E0089583E0089581E008950E94DC1566
:102AE0000E94E415E0EEF0E0808181608083E8EDF3
:102AF000F0E080818F77808319BCA7EDB0E08C91E6
:102B00008E7F8C9380818F7E80831092DB0108956D
:102B10000F931F93CF93DF930E94DC150E94E4155F
:102B2000C8EDD0E088818F7788838881806888832A
:102B300088818F7D888319BC1092DC011092D801A6
:102B40001092DA011092D90100EE10E0F8018081B4
:102B50008B7F808388818160888342E060E080E0B1
:102B60000E94EA14E1EEF0E080818E7F8083E2EE45
:102B7000F0E0808181608083808188608083F801BB
:102B800080818E7F8083888180618883DF91CF916F
:102B90001F910F910895E8EDF0E080818F7E808392
:102BA000E7EDF0E080818160808384E082BF81E096
:102BB0008093DB010C948815E8EDF0E080818E7F36
:102BC00080831092E20008951092DA001092E100E2
:102BD00008951F920F920FB60F9211242F933F93D7
:102BE0004F935F936F937F938F939F93AF93BF9315
:102BF000EF93FF938091E10082FF0BC08091E20090
:102C000082FF07C08091E1008B7F8093E1000E94EA
:102C100053188091DA0080FF19C08091D80080FF9E
:102C200015C08091DA008E7F8093DA008091D90000
:102C300080FF96C080E189BD82E189BD09B400FEB4
:102C4000FDCF81E08093DC010E945B128091E10066
:102C500080FF19C08091E20080FF15C08091E200E2
:102C60008E7F8093E2008091E20080618093E20099
:102C70008091D80080628093D80019BC85E0809351
:102C8000DC010E946D128091E10084FF2BC08091D5
:102C9000E20084FF27C080E189BD82E189BD89B55A
:102CA000982F917080FFFBCF8091D8008F7D80930B
:102CB000D8008091E1008F7E8093E1008091E20056
:102CC0008F7E8093E2008091E20081608093E20039
:102CD0008091D801882309F449C084E08093DC0105
:102CE0000E946E128091E10083FF29C08091E20072
:102CF00083FF25C08091E100877F8093E10082E01F
:102D00008093DC011092D8018091E1008E7F809346
:102D1000E1008091E2008E7F8093E2008091E200EA
:102D200080618093E20042E060E080E00E94EA146B
:102D30008091F00088608093F0000E946C12FF91F7
:102D4000EF91BF91AF919F918F917F916F915F9123
:102D50004F913F912F910F900FBE0F901F9018959C
:102D600019BC1092DC010E94691270CF8091E300BF
:102D700087FD93E09093DC01B3CF1F920F920FB6C3
:102D80000F9211242F933F934F935F936F937F93F1
:102D90008F939F93AF93BF93CF93DF93EF93FF9363
:102DA000D091E900DF708091EC00C82FC17080FDE8
:102DB000C0E81092E9008091F000877F8093F000D6
:102DC00078940E9401171092E9008091F0008860C9
:102DD0008093F000CD2BCF70C093E900FF91EF916D
:102DE000DF91CF91BF91AF919F918F917F916F9123
:102DF0005F914F913F912F910F900FBE0F901F90B9
:102E000018951F93CF93DF93CDB7DEB7AA970FB670
:102E1000F894DEBF0FBECDBF8DED91E02091F100A3
:102E2000FC012193CF01F1E0853E9F07B9F70E9495
:102E300075128091E80083FF1EC18091DD019091A1
:102E4000DE019A3008F017C1E92FF0E0ED52F74E9D
:102E50000C946F18803899F0823809F00CC1809179
:102E6000E1018F70873008F006C18093E9008091FE
:102E7000EB0085FB882780F91092E90006C080915D
:102E8000D9019091DA01911182609091E800977FC9
:102E90009093E8008093F1001092F1008091E80097
:102EA0008E77E5C0882309F4D3C0823009F0E3C0EF
:102EB0008091DF018111D6C08091E1018F702FEFE9
:102EC000280F263008F0D7C08093E9002091EB004E
:102ED00020FFC8C0933031F48091EB008062809372
:102EE000EB00C0C09091EB0090619093EB0021E06B
:102EF00030E001C0220F8A95EAF72093EA00109291
:102F0000EA008091EB008860EACF8111B4C0109193
:102F1000DF011F778091E3008078812B8093E300AD
:102F20008091E800877F8093E8000E941E158091C1
:102F3000E80080FFFCCF8091E30080688093E3008D
:102F400082E0111183E08093DC0195C080588230CB
:102F500008F091C08091DF019091E0018C3D23E069
:102F60009207A1F583E08A838AE289834FB7F894B8
:102F7000DE01139620E03EE051E2E32FF0E05093B3
:102F80005700E49120FF03C0E295EF703F5FEF70C0
:102F90008E2F90E0EA30C0F0C7968D939D932F5FFF
:102FA000243159F74FBF8091E800877F8093E80074
:102FB0006AE270E0CE0101960E942D148091E80033
:102FC0008B778093E80057C0C096E7CF6091E1010E
:102FD0007091E201AE014F5F5F4F0E946B13BC0125
:102FE000892B09F448C09091E800977F9093E800FE
:102FF00089819A810E948B14E1CF8038E1F580911C
:10300000E800877F8093E8008091D8018093F100E9
:1030100045CF811130C09091DF01923060F58091F1
:10302000E800877F8093E8009093D8010E941E15E6
:103030008091D801882311F084E005C08091E300DD
:1030400087FDFACF81E08093DC010E94701213C0EB
:103050008091DF01813079F481E0933009F080E0E4
:103060008093DA011092E9008091E800877F8093D5
:10307000E8000E941E158091E80083FF0AC080913D
:10308000E800877F8093E8008091EB008062809366
:10309000EB00AA960FB6F894DEBF0FBECDBFDF914E
:1030A000CF911F9108950895CF938091DC018823DB
:1030B000A1F0C091E900CF709091EC00892F817050
:1030C00090FD80E8C82B1092E9008091E80083FD14
:1030D0000E940117CF70C093E900CF910895EE0FC1
:1030E000FF1F0590F491E02D0994F999FECF92BD50
:1030F00081BDF89A992780B50895A8E1B0E042E033
:1031000050E00C94A918262FF999FECF92BD81BDED
:10311000F89A019700B4021639F01FBA20BD0FB615
:10312000F894FA9AF99A0FBE08950396272F0E94F1
:1031300084180E948318252F0E948418242F0C9431
:1031400084180196272F0E9484180C948318DC01A0
:10315000CB01FC01F999FECF06C0F2BDE1BDF89AA2
:10316000319600B40D9241505040B8F70895F8944C
:10317000FFCF9B089B08F308F308C808C808C808D5
:10318000C8084509D109E009E009920A920A9B0A98
:103190009B0A9D0A9B0A9B0A9B0A920A920AA20A10
:1031A0009B0A9B0AA20A2A1752173B1852173B1870
:0A31B0008517A6173B18FD17091834
:1031BA00A60122122712251226125A120197669484
:0E31CA0090919293C635F733F4F63132F53416
:00000001FF
